{
  "contractName": "ERC721TokenImplement",
  "abi": [
    {
      "constant": true,
      "inputs": [
        {
          "name": "_tokenId",
          "type": "uint256"
        }
      ],
      "name": "getApproved",
      "outputs": [
        {
          "name": "",
          "type": "address"
        }
      ],
      "payable": false,
      "stateMutability": "view",
      "type": "function"
    },
    {
      "constant": false,
      "inputs": [
        {
          "name": "_to",
          "type": "address"
        },
        {
          "name": "_tokenId",
          "type": "uint256"
        }
      ],
      "name": "approve",
      "outputs": [],
      "payable": false,
      "stateMutability": "nonpayable",
      "type": "function"
    },
    {
      "constant": false,
      "inputs": [
        {
          "name": "_from",
          "type": "address"
        },
        {
          "name": "_to",
          "type": "address"
        },
        {
          "name": "_tokenId",
          "type": "uint256"
        }
      ],
      "name": "transferFrom",
      "outputs": [],
      "payable": false,
      "stateMutability": "nonpayable",
      "type": "function"
    },
    {
      "constant": true,
      "inputs": [
        {
          "name": "",
          "type": "uint32"
        }
      ],
      "name": "TypeIdToStampInfo",
      "outputs": [
        {
          "name": "setId",
          "type": "uint32"
        },
        {
          "name": "typeId",
          "type": "uint32"
        },
        {
          "name": "totalAmount",
          "type": "uint32"
        },
        {
          "name": "remainingAmount",
          "type": "uint32"
        },
        {
          "name": "year",
          "type": "uint16"
        },
        {
          "name": "idOfSet",
          "type": "uint16"
        },
        {
          "name": "name",
          "type": "bytes32"
        }
      ],
      "payable": false,
      "stateMutability": "view",
      "type": "function"
    },
    {
      "constant": false,
      "inputs": [
        {
          "name": "_from",
          "type": "address"
        },
        {
          "name": "_to",
          "type": "address"
        },
        {
          "name": "_tokenId",
          "type": "uint256"
        }
      ],
      "name": "safeTransferFrom",
      "outputs": [],
      "payable": false,
      "stateMutability": "nonpayable",
      "type": "function"
    },
    {
      "constant": true,
      "inputs": [
        {
          "name": "_tokenId",
          "type": "uint256"
        }
      ],
      "name": "exists",
      "outputs": [
        {
          "name": "",
          "type": "bool"
        }
      ],
      "payable": false,
      "stateMutability": "view",
      "type": "function"
    },
    {
      "constant": true,
      "inputs": [
        {
          "name": "",
          "type": "uint32"
        }
      ],
      "name": "TypeIdToSetId",
      "outputs": [
        {
          "name": "",
          "type": "uint16"
        }
      ],
      "payable": false,
      "stateMutability": "view",
      "type": "function"
    },
    {
      "constant": true,
      "inputs": [
        {
          "name": "_tokenId",
          "type": "uint256"
        }
      ],
      "name": "ownerOf",
      "outputs": [
        {
          "name": "",
          "type": "address"
        }
      ],
      "payable": false,
      "stateMutability": "view",
      "type": "function"
    },
    {
      "constant": true,
      "inputs": [
        {
          "name": "_owner",
          "type": "address"
        }
      ],
      "name": "balanceOf",
      "outputs": [
        {
          "name": "",
          "type": "uint256"
        }
      ],
      "payable": false,
      "stateMutability": "view",
      "type": "function"
    },
    {
      "constant": true,
      "inputs": [
        {
          "name": "",
          "type": "uint32"
        }
      ],
      "name": "isExistStampType",
      "outputs": [
        {
          "name": "",
          "type": "bool"
        }
      ],
      "payable": false,
      "stateMutability": "view",
      "type": "function"
    },
    {
      "constant": false,
      "inputs": [
        {
          "name": "_to",
          "type": "address"
        },
        {
          "name": "_approved",
          "type": "bool"
        }
      ],
      "name": "setApprovalForAll",
      "outputs": [],
      "payable": false,
      "stateMutability": "nonpayable",
      "type": "function"
    },
    {
      "constant": false,
      "inputs": [
        {
          "name": "_from",
          "type": "address"
        },
        {
          "name": "_to",
          "type": "address"
        },
        {
          "name": "_tokenId",
          "type": "uint256"
        },
        {
          "name": "_data",
          "type": "bytes"
        }
      ],
      "name": "safeTransferFrom",
      "outputs": [],
      "payable": false,
      "stateMutability": "nonpayable",
      "type": "function"
    },
    {
      "constant": true,
      "inputs": [
        {
          "name": "",
          "type": "uint16"
        }
      ],
      "name": "SetIdToStampSet",
      "outputs": [
        {
          "name": "setId",
          "type": "uint16"
        }
      ],
      "payable": false,
      "stateMutability": "view",
      "type": "function"
    },
    {
      "constant": true,
      "inputs": [
        {
          "name": "",
          "type": "uint16"
        }
      ],
      "name": "isExistSet",
      "outputs": [
        {
          "name": "",
          "type": "bool"
        }
      ],
      "payable": false,
      "stateMutability": "view",
      "type": "function"
    },
    {
      "constant": true,
      "inputs": [
        {
          "name": "_owner",
          "type": "address"
        },
        {
          "name": "_operator",
          "type": "address"
        }
      ],
      "name": "isApprovedForAll",
      "outputs": [
        {
          "name": "approved",
          "type": "bool"
        }
      ],
      "payable": false,
      "stateMutability": "view",
      "type": "function"
    },
    {
      "anonymous": false,
      "inputs": [
        {
          "indexed": true,
          "name": "_from",
          "type": "address"
        },
        {
          "indexed": true,
          "name": "_to",
          "type": "address"
        },
        {
          "indexed": false,
          "name": "_tokenId",
          "type": "uint256"
        }
      ],
      "name": "Transfer",
      "type": "event"
    },
    {
      "anonymous": false,
      "inputs": [
        {
          "indexed": true,
          "name": "_owner",
          "type": "address"
        },
        {
          "indexed": true,
          "name": "_approved",
          "type": "address"
        },
        {
          "indexed": false,
          "name": "_tokenId",
          "type": "uint256"
        }
      ],
      "name": "Approval",
      "type": "event"
    },
    {
      "anonymous": false,
      "inputs": [
        {
          "indexed": true,
          "name": "_owner",
          "type": "address"
        },
        {
          "indexed": true,
          "name": "_operator",
          "type": "address"
        },
        {
          "indexed": false,
          "name": "_approved",
          "type": "bool"
        }
      ],
      "name": "ApprovalForAll",
      "type": "event"
    },
    {
      "constant": true,
      "inputs": [],
      "name": "name",
      "outputs": [
        {
          "name": "",
          "type": "string"
        }
      ],
      "payable": false,
      "stateMutability": "view",
      "type": "function"
    },
    {
      "constant": true,
      "inputs": [],
      "name": "symbol",
      "outputs": [
        {
          "name": "",
          "type": "string"
        }
      ],
      "payable": false,
      "stateMutability": "view",
      "type": "function"
    },
    {
      "constant": true,
      "inputs": [
        {
          "name": "_tokenId",
          "type": "uint256"
        }
      ],
      "name": "tokenURI",
      "outputs": [
        {
          "name": "",
          "type": "string"
        }
      ],
      "payable": false,
      "stateMutability": "view",
      "type": "function"
    },
    {
      "constant": true,
      "inputs": [],
      "name": "totalSupply",
      "outputs": [
        {
          "name": "",
          "type": "uint256"
        }
      ],
      "payable": false,
      "stateMutability": "view",
      "type": "function"
    },
    {
      "constant": true,
      "inputs": [
        {
          "name": "_owner",
          "type": "address"
        },
        {
          "name": "_index",
          "type": "uint256"
        }
      ],
      "name": "tokenOfOwnerByIndex",
      "outputs": [
        {
          "name": "",
          "type": "uint256"
        }
      ],
      "payable": false,
      "stateMutability": "view",
      "type": "function"
    },
    {
      "constant": true,
      "inputs": [
        {
          "name": "_index",
          "type": "uint256"
        }
      ],
      "name": "tokenByIndex",
      "outputs": [
        {
          "name": "",
          "type": "uint256"
        }
      ],
      "payable": false,
      "stateMutability": "view",
      "type": "function"
    }
  ],
  "bytecode": "0x60806040526040805190810160405280600a81526020017f5374616d70546f6b656e00000000000000000000000000000000000000000000815250600c908051906020019062000051929190620000b4565b506040805190810160405280600281526020017f5354000000000000000000000000000000000000000000000000000000000000815250600d90805190602001906200009f929190620000b4565b50348015620000ad57600080fd5b5062000163565b828054600181600116156101000203166002900490600052602060002090601f016020900481019282601f10620000f757805160ff191683800117855562000128565b8280016001018555821562000128579182015b82811115620001275782518255916020019190600101906200010a565b5b5090506200013791906200013b565b5090565b6200016091905b808211156200015c57600081600090555060010162000142565b5090565b90565b611eaa80620001736000396000f30060806040526004361061011d576000357c0100000000000000000000000000000000000000000000000000000000900463ffffffff16806306fdde0314610122578063081812fc146101b2578063095ea7b31461021f57806318160ddd1461026c57806323b872dd146102975780632f745c59146103045780633052b1421461036557806342842e0e1461041e5780634f558e791461048b5780634f6ccce7146104d05780635f6a271a146105115780636352211e1461056057806370a08231146105cd57806395d89b4114610624578063a0285d88146106b4578063a22cb465146106ff578063b88d4fde1461074e578063c1f765d714610801578063c87b56dd1461084e578063e206baa9146108f4578063e985e9c51461093d575b600080fd5b34801561012e57600080fd5b506101376109b8565b6040518080602001828103825283818151815260200191508051906020019080838360005b8381101561017757808201518184015260208101905061015c565b50505050905090810190601f1680156101a45780820380516001836020036101000a031916815260200191505b509250505060405180910390f35b3480156101be57600080fd5b506101dd60048036038101908080359060200190929190505050610a5a565b604051808273ffffffffffffffffffffffffffffffffffffffff1673ffffffffffffffffffffffffffffffffffffffff16815260200191505060405180910390f35b34801561022b57600080fd5b5061026a600480360381019080803573ffffffffffffffffffffffffffffffffffffffff16906020019092919080359060200190929190505050610a97565b005b34801561027857600080fd5b50610281610c5d565b6040518082815260200191505060405180910390f35b3480156102a357600080fd5b50610302600480360381019080803573ffffffffffffffffffffffffffffffffffffffff169060200190929190803573ffffffffffffffffffffffffffffffffffffffff16906020019092919080359060200190929190505050610c6a565b005b34801561031057600080fd5b5061034f600480360381019080803573ffffffffffffffffffffffffffffffffffffffff16906020019092919080359060200190929190505050610d81565b6040518082815260200191505060405180910390f35b34801561037157600080fd5b50610396600480360381019080803563ffffffff169060200190929190505050610df8565b604051808863ffffffff1663ffffffff1681526020018763ffffffff1663ffffffff1681526020018663ffffffff1663ffffffff1681526020018563ffffffff1663ffffffff1681526020018461ffff1661ffff1681526020018361ffff1661ffff168152602001826000191660001916815260200197505050505050505060405180910390f35b34801561042a57600080fd5b50610489600480360381019080803573ffffffffffffffffffffffffffffffffffffffff169060200190929190803573ffffffffffffffffffffffffffffffffffffffff16906020019092919080359060200190929190505050610e96565b005b34801561049757600080fd5b506104b660048036038101908080359060200190929190505050610ece565b604051808215151515815260200191505060405180910390f35b3480156104dc57600080fd5b506104fb60048036038101908080359060200190929190505050610f40565b6040518082815260200191505060405180910390f35b34801561051d57600080fd5b50610542600480360381019080803563ffffffff169060200190929190505050610f78565b604051808261ffff1661ffff16815260200191505060405180910390f35b34801561056c57600080fd5b5061058b60048036038101908080359060200190929190505050610f99565b604051808273ffffffffffffffffffffffffffffffffffffffff1673ffffffffffffffffffffffffffffffffffffffff16815260200191505060405180910390f35b3480156105d957600080fd5b5061060e600480360381019080803573ffffffffffffffffffffffffffffffffffffffff169060200190929190505050611017565b6040518082815260200191505060405180910390f35b34801561063057600080fd5b5061063961109b565b6040518080602001828103825283818151815260200191508051906020019080838360005b8381101561067957808201518184015260208101905061065e565b50505050905090810190601f1680156106a65780820380516001836020036101000a031916815260200191505b509250505060405180910390f35b3480156106c057600080fd5b506106e5600480360381019080803563ffffffff16906020019092919050505061113d565b604051808215151515815260200191505060405180910390f35b34801561070b57600080fd5b5061074c600480360381019080803573ffffffffffffffffffffffffffffffffffffffff16906020019092919080351515906020019092919050505061115d565b005b34801561075a57600080fd5b506107ff600480360381019080803573ffffffffffffffffffffffffffffffffffffffff169060200190929190803573ffffffffffffffffffffffffffffffffffffffff16906020019092919080359060200190929190803590602001908201803590602001908080601f0160208091040260200160405190810160405280939291908181526020018383808284378201915050505050509192919290505050611299565b005b34801561080d57600080fd5b50610830600480360381019080803561ffff1690602001909291905050506112d8565b604051808261ffff1661ffff16815260200191505060405180910390f35b34801561085a57600080fd5b5061087960048036038101908080359060200190929190505050611304565b6040518080602001828103825283818151815260200191508051906020019080838360005b838110156108b957808201518184015260208101905061089e565b50505050905090810190601f1680156108e65780820380516001836020036101000a031916815260200191505b509250505060405180910390f35b34801561090057600080fd5b50610923600480360381019080803561ffff1690602001909291905050506113cd565b604051808215151515815260200191505060405180910390f35b34801561094957600080fd5b5061099e600480360381019080803573ffffffffffffffffffffffffffffffffffffffff169060200190929190803573ffffffffffffffffffffffffffffffffffffffff1690602001909291905050506113ed565b604051808215151515815260200191505060405180910390f35b6060600c8054600181600116156101000203166002900480601f016020809104026020016040519081016040528092919081815260200182805460018160011615610100020316600290048015610a505780601f10610a2557610100808354040283529160200191610a50565b820191906000526020600020905b815481529060010190602001808311610a3357829003601f168201915b5050505050905090565b60006009600083815260200190815260200160002060009054906101000a900473ffffffffffffffffffffffffffffffffffffffff169050919050565b6000610aa282610f99565b90508073ffffffffffffffffffffffffffffffffffffffff168373ffffffffffffffffffffffffffffffffffffffff1614151515610adf57600080fd5b8073ffffffffffffffffffffffffffffffffffffffff163373ffffffffffffffffffffffffffffffffffffffff161480610b1f5750610b1e81336113ed565b5b1515610b2a57600080fd5b600073ffffffffffffffffffffffffffffffffffffffff16610b4b83610a5a565b73ffffffffffffffffffffffffffffffffffffffff16141580610b9b5750600073ffffffffffffffffffffffffffffffffffffffff168373ffffffffffffffffffffffffffffffffffffffff1614155b15610c5857826009600084815260200190815260200160002060006101000a81548173ffffffffffffffffffffffffffffffffffffffff021916908373ffffffffffffffffffffffffffffffffffffffff1602179055508273ffffffffffffffffffffffffffffffffffffffff168173ffffffffffffffffffffffffffffffffffffffff167f8c5be1e5ebec7d5bd14f71427d1e84f3dd0314c0f7b2291e5b200ac8c7c3b925846040518082815260200191505060405180910390a35b505050565b6000601080549050905090565b80610c753382611481565b1515610c8057600080fd5b600073ffffffffffffffffffffffffffffffffffffffff168473ffffffffffffffffffffffffffffffffffffffff1614151515610cbc57600080fd5b600073ffffffffffffffffffffffffffffffffffffffff168373ffffffffffffffffffffffffffffffffffffffff1614151515610cf857600080fd5b610d028483611516565b610d0c848361167f565b610d168383611897565b8273ffffffffffffffffffffffffffffffffffffffff168473ffffffffffffffffffffffffffffffffffffffff167fddf252ad1be2c89b69c2b068fc378daa952ba7f163c4a11628f55a4df523b3ef846040518082815260200191505060405180910390a350505050565b6000610d8c83611017565b82101515610d9957600080fd5b600e60008473ffffffffffffffffffffffffffffffffffffffff1673ffffffffffffffffffffffffffffffffffffffff16815260200190815260200160002082815481101515610de557fe5b9060005260206000200154905092915050565b60016020528060005260406000206000915090508060000160009054906101000a900463ffffffff16908060000160049054906101000a900463ffffffff16908060000160089054906101000a900463ffffffff169080600001600c9054906101000a900463ffffffff16908060000160109054906101000a900461ffff16908060000160129054906101000a900461ffff16908060010154905087565b80610ea13382611481565b1515610eac57600080fd5b610ec88484846020604051908101604052806000815250611299565b50505050565b6000806008600084815260200190815260200160002060009054906101000a900473ffffffffffffffffffffffffffffffffffffffff169050600073ffffffffffffffffffffffffffffffffffffffff168173ffffffffffffffffffffffffffffffffffffffff161415915050919050565b6000610f4a610c5d565b82101515610f5757600080fd5b601082815481101515610f6657fe5b90600052602060002001549050919050565b60056020528060005260406000206000915054906101000a900461ffff1681565b6000806008600084815260200190815260200160002060009054906101000a900473ffffffffffffffffffffffffffffffffffffffff169050600073ffffffffffffffffffffffffffffffffffffffff168173ffffffffffffffffffffffffffffffffffffffff161415151561100e57600080fd5b80915050919050565b60008073ffffffffffffffffffffffffffffffffffffffff168273ffffffffffffffffffffffffffffffffffffffff161415151561105457600080fd5b600a60008373ffffffffffffffffffffffffffffffffffffffff1673ffffffffffffffffffffffffffffffffffffffff168152602001908152602001600020549050919050565b6060600d8054600181600116156101000203166002900480601f0160208091040260200160405190810160405280929190818152602001828054600181600116156101000203166002900480156111335780601f1061110857610100808354040283529160200191611133565b820191906000526020600020905b81548152906001019060200180831161111657829003601f168201915b5050505050905090565b60076020528060005260406000206000915054906101000a900460ff1681565b3373ffffffffffffffffffffffffffffffffffffffff168273ffffffffffffffffffffffffffffffffffffffff161415151561119857600080fd5b80600b60003373ffffffffffffffffffffffffffffffffffffffff1673ffffffffffffffffffffffffffffffffffffffff16815260200190815260200160002060008473ffffffffffffffffffffffffffffffffffffffff1673ffffffffffffffffffffffffffffffffffffffff16815260200190815260200160002060006101000a81548160ff0219169083151502179055508173ffffffffffffffffffffffffffffffffffffffff163373ffffffffffffffffffffffffffffffffffffffff167f17307eab39ab6107e8899845ad3d59bd9653f200f220920489ca2b5937696c3183604051808215151515815260200191505060405180910390a35050565b816112a43382611481565b15156112af57600080fd5b6112ba858585610c6a565b6112c68585858561196e565b15156112d157600080fd5b5050505050565b60046020528060005260406000206000915090508060000160009054906101000a900461ffff16905081565b606061130f82610ece565b151561131a57600080fd5b601260008381526020019081526020016000208054600181600116156101000203166002900480601f0160208091040260200160405190810160405280929190818152602001828054600181600116156101000203166002900480156113c15780601f10611396576101008083540402835291602001916113c1565b820191906000526020600020905b8154815290600101906020018083116113a457829003601f168201915b50505050509050919050565b60066020528060005260406000206000915054906101000a900460ff1681565b6000600b60008473ffffffffffffffffffffffffffffffffffffffff1673ffffffffffffffffffffffffffffffffffffffff16815260200190815260200160002060008373ffffffffffffffffffffffffffffffffffffffff1673ffffffffffffffffffffffffffffffffffffffff16815260200190815260200160002060009054906101000a900460ff16905092915050565b60008061148d83610f99565b90508073ffffffffffffffffffffffffffffffffffffffff168473ffffffffffffffffffffffffffffffffffffffff1614806114fc57508373ffffffffffffffffffffffffffffffffffffffff166114e484610a5a565b73ffffffffffffffffffffffffffffffffffffffff16145b8061150d575061150c81856113ed565b5b91505092915050565b8173ffffffffffffffffffffffffffffffffffffffff1661153682610f99565b73ffffffffffffffffffffffffffffffffffffffff1614151561155857600080fd5b600073ffffffffffffffffffffffffffffffffffffffff166009600083815260200190815260200160002060009054906101000a900473ffffffffffffffffffffffffffffffffffffffff1673ffffffffffffffffffffffffffffffffffffffff1614151561167b5760006009600083815260200190815260200160002060006101000a81548173ffffffffffffffffffffffffffffffffffffffff021916908373ffffffffffffffffffffffffffffffffffffffff160217905550600073ffffffffffffffffffffffffffffffffffffffff168273ffffffffffffffffffffffffffffffffffffffff167f8c5be1e5ebec7d5bd14f71427d1e84f3dd0314c0f7b2291e5b200ac8c7c3b925836040518082815260200191505060405180910390a35b5050565b600080600061168e8585611b5c565b600f60008581526020019081526020016000205492506116fa6001600e60008873ffffffffffffffffffffffffffffffffffffffff1673ffffffffffffffffffffffffffffffffffffffff16815260200190815260200160002080549050611c8b90919063ffffffff16565b9150600e60008673ffffffffffffffffffffffffffffffffffffffff1673ffffffffffffffffffffffffffffffffffffffff1681526020019081526020016000208281548110151561174857fe5b9060005260206000200154905080600e60008773ffffffffffffffffffffffffffffffffffffffff1673ffffffffffffffffffffffffffffffffffffffff168152602001908152602001600020848154811015156117a257fe5b90600052602060002001819055506000600e60008773ffffffffffffffffffffffffffffffffffffffff1673ffffffffffffffffffffffffffffffffffffffff168152602001908152602001600020838154811015156117fe57fe5b9060005260206000200181905550600e60008673ffffffffffffffffffffffffffffffffffffffff1673ffffffffffffffffffffffffffffffffffffffff16815260200190815260200160002080548091906001900361185e9190611e2d565b506000600f60008681526020019081526020016000208190555082600f6000838152602001908152602001600020819055505050505050565b60006118a38383611ca4565b600e60008473ffffffffffffffffffffffffffffffffffffffff1673ffffffffffffffffffffffffffffffffffffffff168152602001908152602001600020805490509050600e60008473ffffffffffffffffffffffffffffffffffffffff1673ffffffffffffffffffffffffffffffffffffffff16815260200190815260200160002082908060018154018082558091505090600182039060005260206000200160009091929091909150555080600f600084815260200190815260200160002081905550505050565b6000806119908573ffffffffffffffffffffffffffffffffffffffff16611dfe565b151561199f5760019150611b53565b8473ffffffffffffffffffffffffffffffffffffffff1663f0b9e5ba8786866040518463ffffffff167c0100000000000000000000000000000000000000000000000000000000028152600401808473ffffffffffffffffffffffffffffffffffffffff1673ffffffffffffffffffffffffffffffffffffffff16815260200183815260200180602001828103825283818151815260200191508051906020019080838360005b83811015611a61578082015181840152602081019050611a46565b50505050905090810190601f168015611a8e5780820380516001836020036101000a031916815260200191505b50945050505050602060405180830381600087803b158015611aaf57600080fd5b505af1158015611ac3573d6000803e3d6000fd5b505050506040513d6020811015611ad957600080fd5b8101908080519060200190929190505050905063f0b9e5ba7c0100000000000000000000000000000000000000000000000000000000027bffffffffffffffffffffffffffffffffffffffffffffffffffffffff1916817bffffffffffffffffffffffffffffffffffffffffffffffffffffffff19161491505b50949350505050565b8173ffffffffffffffffffffffffffffffffffffffff16611b7c82610f99565b73ffffffffffffffffffffffffffffffffffffffff16141515611b9e57600080fd5b611bf16001600a60008573ffffffffffffffffffffffffffffffffffffffff1673ffffffffffffffffffffffffffffffffffffffff16815260200190815260200160002054611c8b90919063ffffffff16565b600a60008473ffffffffffffffffffffffffffffffffffffffff1673ffffffffffffffffffffffffffffffffffffffff1681526020019081526020016000208190555060006008600083815260200190815260200160002060006101000a81548173ffffffffffffffffffffffffffffffffffffffff021916908373ffffffffffffffffffffffffffffffffffffffff1602179055505050565b6000828211151515611c9957fe5b818303905092915050565b600073ffffffffffffffffffffffffffffffffffffffff166008600083815260200190815260200160002060009054906101000a900473ffffffffffffffffffffffffffffffffffffffff1673ffffffffffffffffffffffffffffffffffffffff16141515611d1257600080fd5b816008600083815260200190815260200160002060006101000a81548173ffffffffffffffffffffffffffffffffffffffff021916908373ffffffffffffffffffffffffffffffffffffffff160217905550611db76001600a60008573ffffffffffffffffffffffffffffffffffffffff1673ffffffffffffffffffffffffffffffffffffffff16815260200190815260200160002054611e1190919063ffffffff16565b600a60008473ffffffffffffffffffffffffffffffffffffffff1673ffffffffffffffffffffffffffffffffffffffff168152602001908152602001600020819055505050565b600080823b905060008111915050919050565b60008183019050828110151515611e2457fe5b80905092915050565b815481835581811115611e5457818360005260206000209182019101611e539190611e59565b5b505050565b611e7b91905b80821115611e77576000816000905550600101611e5f565b5090565b905600a165627a7a72305820c37fc23864731dde5dcc6800f23393607bdcf5138de34fdd642b7ce3d8784e780029",
  "source": "pragma solidity ^0.4.23;\n\nimport \"./ERC721/ERC721.sol\";\nimport \"./ERC721/ERC721Basic.sol\";\nimport \"./ERC721/ERC721Receiver.sol\";\nimport \"./math/SafeMath.sol\";\nimport \"./AddressUtils.sol\";\n\ncontract Ownable {\n  address public owner;\n\n\n  constructor() public {\n    owner = msg.sender;\n  }\n\n  modifier onlyOwner() {\n    require(msg.sender == owner);\n    _;\n  }\n\n  function transferOwnership(address newOwner) public onlyOwner {\n    if (newOwner != address(0)) {\n      owner = newOwner;\n    }\n  }\n\n}\n\ncontract Pausable is Ownable {\n  event Pause();\n  event Unpause();\n\n  bool public paused = false;\n\n  modifier whenNotPaused() {\n    require(!paused);\n    _;\n  }\n\n  modifier whenPaused {\n    require(paused);\n    _;\n  }\n\n  function pause() onlyOwner public whenNotPaused returns (bool) {\n    paused = true;\n    emit Pause();\n    return true;\n  }\n\n  function unpause() onlyOwner public whenPaused returns (bool) {\n    paused = false;\n    emit Unpause();\n    return true;\n  }\n}\n\ncontract StampAccessControl {\n    event ContractUpgrade(address newContract);\n\n    address public ceoAddress;\n    address public cfoAddress;\n    address public cooAddress;\n\n    bool public paused = false;\n\n    modifier onlyCEO() {\n        require(msg.sender == ceoAddress);\n        _;\n    }\n\n    modifier onlyCFO() {\n        require(msg.sender == cfoAddress);\n        _;\n    }\n\n    modifier onlyCOO() {\n        require(msg.sender == cooAddress);\n        _;\n    }\n\n    modifier onlyCLevel() {\n        require(\n            msg.sender == cooAddress ||\n            msg.sender == ceoAddress ||\n            msg.sender == cfoAddress\n        );\n        _;\n    }\n\n    function setCEO(address _newCEO) external onlyCEO {\n        require(_newCEO != address(0));\n\n        ceoAddress = _newCEO;\n    }\n\n    function setCFO(address _newCFO) external onlyCEO {\n        require(_newCFO != address(0));\n\n        cfoAddress = _newCFO;\n    }\n\n    function setCOO(address _newCOO) external onlyCEO {\n        require(_newCOO != address(0));\n\n        cooAddress = _newCOO;\n    }\n\n    modifier whenNotPaused() {\n        require(!paused);\n        _;\n    }\n\n    modifier whenPaused {\n        require(paused);\n        _;\n    }\n\n    function pause() external onlyCLevel whenNotPaused {\n        paused = true;\n    }\n\n    function unpause() public onlyCEO whenPaused {\n        paused = false;\n    }\n}\n\ncontract StampDataSource {\n    /*** DATA TYPES ***/\n    struct StampInfo {\n        uint32 setId;//set ID\n        uint32 typeId;//Unique stamp ID\n        uint32 totalAmount;//The total amount of stamps issued\n        uint32 remainingAmount;//The remainder of the stamp issue\n        uint16 year;//issuing year of Stamp \n        uint16 idOfSet;//ID in a set of stamps\n        bytes32 name;//the name of Stamp \n    }\n    //Information about a stamp\n    struct Stamp {\n        uint32 typeId;\n        uint256 price;\n        uint8 appearance;\n    }\n    //Information on the stamp section\n    struct StampSet {\n        uint16 setId;\n        uint32[] typeIds;\n    }\n\n    /*** STORAGE ***/\n    StampInfo[] stampInfos;\n    mapping (uint32 => StampInfo) public TypeIdToStampInfo;//typeId -> StampInfo\n    \n    Stamp[] stamps;\n    \n    StampSet[] stampSets;\n    mapping (uint16 => StampSet) public SetIdToStampSet;//\n    mapping (uint32 => uint16) public TypeIdToSetId;//\n    mapping (uint16 => bool) public isExistSet;\n    mapping (uint32 => bool) public isExistStampType;\n}\n\n\n\ncontract ERC721BasicToken is ERC721Basic {\n  using SafeMath for uint256;\n  using AddressUtils for address;\n\n  bytes4 constant ERC721_RECEIVED = 0xf0b9e5ba;\n\n  // Mapping from token ID to owner\n  mapping (uint256 => address) internal tokenOwner;\n\n  // Mapping from token ID to approved address\n  mapping (uint256 => address) internal tokenApprovals;\n\n  // Mapping from owner to number of owned token\n  mapping (address => uint256) internal ownedTokensCount;\n\n  // Mapping from owner to operator approvals\n  mapping (address => mapping (address => bool)) internal operatorApprovals;\n\n  /**\n   * @dev Guarantees msg.sender is owner of the given token\n   * @param _tokenId uint256 ID of the token to validate its ownership belongs to msg.sender\n   */\n  modifier onlyOwnerOf(uint256 _tokenId) {\n    require(ownerOf(_tokenId) == msg.sender);\n    _;\n  }\n\n  /**\n   * @dev Checks msg.sender can transfer a token, by being owner, approved, or operator\n   * @param _tokenId uint256 ID of the token to validate\n   */\n  modifier canTransfer(uint256 _tokenId) {\n    require(isApprovedOrOwner(msg.sender, _tokenId));\n    _;\n  }\n\n  /**\n   * @dev Gets the balance of the specified address\n   * @param _owner address to query the balance of\n   * @return uint256 representing the amount owned by the passed address\n   */\n  function balanceOf(address _owner) public view returns (uint256) {\n    require(_owner != address(0));\n    return ownedTokensCount[_owner];\n  }\n\n  /**\n   * @dev Gets the owner of the specified token ID\n   * @param _tokenId uint256 ID of the token to query the owner of\n   * @return owner address currently marked as the owner of the given token ID\n   */\n  function ownerOf(uint256 _tokenId) public view returns (address) {\n    address owner = tokenOwner[_tokenId];\n    require(owner != address(0));\n    return owner;\n  }\n\n  /**\n   * @dev Returns whether the specified token exists\n   * @param _tokenId uint256 ID of the token to query the existance of\n   * @return whether the token exists\n   */\n  function exists(uint256 _tokenId) public view returns (bool) {\n    address owner = tokenOwner[_tokenId];\n    return owner != address(0);\n  }\n\n  /**\n   * @dev Approves another address to transfer the given token ID\n   * @dev The zero address indicates there is no approved address.\n   * @dev There can only be one approved address per token at a given time.\n   * @dev Can only be called by the token owner or an approved operator.\n   * @param _to address to be approved for the given token ID\n   * @param _tokenId uint256 ID of the token to be approved\n   */\n  function approve(address _to, uint256 _tokenId) public {\n    address owner = ownerOf(_tokenId);\n    require(_to != owner);\n    require(msg.sender == owner || isApprovedForAll(owner, msg.sender));\n\n    if (getApproved(_tokenId) != address(0) || _to != address(0)) {\n      tokenApprovals[_tokenId] = _to;\n      emit Approval(owner, _to, _tokenId);\n    }\n  }\n\n  /**\n   * @dev Gets the approved address for a token ID, or zero if no address set\n   * @param _tokenId uint256 ID of the token to query the approval of\n   * @return address currently approved for a the given token ID\n   */\n  function getApproved(uint256 _tokenId) public view returns (address) {\n    return tokenApprovals[_tokenId];\n  }\n\n  /**\n   * @dev Sets or unsets the approval of a given operator\n   * @dev An operator is allowed to transfer all tokens of the sender on their behalf\n   * @param _to operator address to set the approval\n   * @param _approved representing the status of the approval to be set\n   */\n  function setApprovalForAll(address _to, bool _approved) public {\n    require(_to != msg.sender);\n    operatorApprovals[msg.sender][_to] = _approved;\n    emit ApprovalForAll(msg.sender, _to, _approved);\n  }\n\n  /**\n   * @dev Tells whether an operator is approved by a given owner\n   * @param _owner owner address which you want to query the approval of\n   * @param _operator operator address which you want to query the approval of\n   * @return bool whether the given operator is approved by the given owner\n   */\n  function isApprovedForAll(address _owner, address _operator) public view returns (bool approved) {\n   approved = operatorApprovals[_owner][_operator];\n  }\n\n  /**\n   * @dev Transfers the ownership of a given token ID to another address\n   * @dev Usage of this method is discouraged, use `safeTransferFrom` whenever possible\n   * @dev Requires the msg sender to be the owner, approved, or operator\n   * @param _from current owner of the token\n   * @param _to address to receive the ownership of the given token ID\n   * @param _tokenId uint256 ID of the token to be transferred\n  */\n  function transferFrom(address _from, address _to, uint256 _tokenId) public canTransfer(_tokenId){\n    require(_from != address(0));\n    require(_to != address(0));\n\n    clearApproval(_from, _tokenId);\n    removeTokenFrom(_from, _tokenId);\n    addTokenTo(_to, _tokenId);\n\n    emit Transfer(_from, _to, _tokenId);\n  }\n\n  /**\n   * @dev Safely transfers the ownership of a given token ID to another address\n   * @dev If the target address is a contract, it must implement `onERC721Received`,\n   *  which is called upon a safe transfer, and return the magic value\n   *  `bytes4(keccak256(\"onERC721Received(address,uint256,bytes)\"))`; otherwise,\n   *  the transfer is reverted.\n   * @dev Requires the msg sender to be the owner, approved, or operator\n   * @param _from current owner of the token\n   * @param _to address to receive the ownership of the given token ID\n   * @param _tokenId uint256 ID of the token to be transferred\n  */\n  function safeTransferFrom(\n    address _from,\n    address _to,\n    uint256 _tokenId\n  )\n    public\n    canTransfer(_tokenId)\n  {\n    // solium-disable-next-line arg-overflow\n    safeTransferFrom(_from, _to, _tokenId, \"\");\n  }\n\n  /**\n   * @dev Safely transfers the ownership of a given token ID to another address\n   * @dev If the target address is a contract, it must implement `onERC721Received`,\n   *  which is called upon a safe transfer, and return the magic value\n   *  `bytes4(keccak256(\"onERC721Received(address,uint256,bytes)\"))`; otherwise,\n   *  the transfer is reverted.\n   * @dev Requires the msg sender to be the owner, approved, or operator\n   * @param _from current owner of the token\n   * @param _to address to receive the ownership of the given token ID\n   * @param _tokenId uint256 ID of the token to be transferred\n   * @param _data bytes data to send along with a safe transfer check\n   */\n  function safeTransferFrom(\n    address _from,\n    address _to,\n    uint256 _tokenId,\n    bytes _data\n  )\n    public\n    canTransfer(_tokenId)\n  {\n    transferFrom(_from, _to, _tokenId);\n    // solium-disable-next-line arg-overflow\n    require(checkAndCallSafeTransfer(_from, _to, _tokenId, _data));\n  }\n\n  /**\n   * @dev Returns whether the given spender can transfer a given token ID\n   * @param _spender address of the spender to query\n   * @param _tokenId uint256 ID of the token to be transferred\n   * @return bool whether the msg.sender is approved for the given token ID,\n   *  is an operator of the owner, or is the owner of the token\n   */\n  function isApprovedOrOwner(address _spender, uint256 _tokenId) internal view returns (bool) {\n    address owner = ownerOf(_tokenId);\n    return _spender == owner || getApproved(_tokenId) == _spender || isApprovedForAll(owner, _spender);\n  }\n\n  /**\n   * @dev Internal function to mint a new token\n   * @dev Reverts if the given token ID already exists\n   * @param _to The address that will own the minted token\n   * @param _tokenId uint256 ID of the token to be minted by the msg.sender\n   */\n  function _mint(address _to, uint256 _tokenId) internal {\n    require(_to != address(0));\n    addTokenTo(_to, _tokenId);\n    emit Transfer(address(0), _to, _tokenId);\n  }\n\n  /**\n   * @dev Internal function to burn a specific token\n   * @dev Reverts if the token does not exist\n   * @param _tokenId uint256 ID of the token being burned by the msg.sender\n   */\n  function _burn(address _owner, uint256 _tokenId) internal {\n    clearApproval(_owner, _tokenId);\n    removeTokenFrom(_owner, _tokenId);\n    emit Transfer(_owner, address(0), _tokenId);\n  }\n\n  /**\n   * @dev Internal function to clear current approval of a given token ID\n   * @dev Reverts if the given address is not indeed the owner of the token\n   * @param _owner owner of the token\n   * @param _tokenId uint256 ID of the token to be transferred\n   */\n  function clearApproval(address _owner, uint256 _tokenId) internal {\n    require(ownerOf(_tokenId) == _owner);\n    if (tokenApprovals[_tokenId] != address(0)) {\n      tokenApprovals[_tokenId] = address(0);\n      emit Approval(_owner, address(0), _tokenId);\n    }\n  }\n\n  /**\n   * @dev Internal function to add a token ID to the list of a given address\n   * @param _to address representing the new owner of the given token ID\n   * @param _tokenId uint256 ID of the token to be added to the tokens list of the given address\n   */\n  function addTokenTo(address _to, uint256 _tokenId) internal {\n    require(tokenOwner[_tokenId] == address(0));\n    tokenOwner[_tokenId] = _to;\n    ownedTokensCount[_to] = ownedTokensCount[_to].add(1);\n  }\n\n  /**\n   * @dev Internal function to remove a token ID from the list of a given address\n   * @param _from address representing the previous owner of the given token ID\n   * @param _tokenId uint256 ID of the token to be removed from the tokens list of the given address\n   */\n  function removeTokenFrom(address _from, uint256 _tokenId) internal {\n    require(ownerOf(_tokenId) == _from);\n    ownedTokensCount[_from] = ownedTokensCount[_from].sub(1);\n    tokenOwner[_tokenId] = address(0);\n  }\n\n  /**\n   * @dev Internal function to invoke `onERC721Received` on a target address\n   * @dev The call is not executed if the target address is not a contract\n   * @param _from address representing the previous owner of the given token ID\n   * @param _to target address that will receive the tokens\n   * @param _tokenId uint256 ID of the token to be transferred\n   * @param _data bytes optional data to send along with the call\n   * @return whether the call correctly returned the expected magic value\n   */\n  function checkAndCallSafeTransfer(\n    address _from,\n    address _to,\n    uint256 _tokenId,\n    bytes _data\n  )\n    internal\n    returns (bool)\n  {\n    if (!_to.isContract()) {\n      return true;\n    }\n    bytes4 retval = ERC721Receiver(_to).onERC721Received(_from, _tokenId, _data);\n    return (retval == ERC721_RECEIVED);\n  }\n}\n\ncontract ERC721TokenImplement is StampDataSource, ERC721, ERC721BasicToken {\n  \n    // Token name\n    string internal name_ = \"StampToken\";\n\n    // Token symbol\n    string internal symbol_ = \"ST\";\n\n  // Mapping from owner to list of owned token IDs\n  mapping (address => uint256[]) internal ownedTokens;\n\n  // Mapping from token ID to index of the owner tokens list\n  mapping(uint256 => uint256) internal ownedTokensIndex;\n\n  // Array with all token ids, used for enumeration\n  uint256[] internal allTokens;\n\n  // Mapping from token id to position in the allTokens array\n  mapping(uint256 => uint256) internal allTokensIndex;\n\n  // Optional mapping for token URIs\n  mapping(uint256 => string) internal tokenURIs;\n\n  /**\n   * @dev Gets the token name\n   * @return string representing the token name\n   */\n  function name() public view returns (string) {\n    return name_;\n  }\n\n  /**\n   * @dev Gets the token symbol\n   * @return string representing the token symbol\n   */\n  function symbol() public view returns (string) {\n    return symbol_;\n  }\n\n  /**\n   * @dev Returns an URI for a given token ID\n   * @dev Throws if the token ID does not exist. May return an empty string.\n   * @param _tokenId uint256 ID of the token to query\n   */\n  function tokenURI(uint256 _tokenId) public view returns (string) {\n    require(exists(_tokenId));\n    return tokenURIs[_tokenId];\n  }\n\n  /**\n   * @dev Gets the total amount of tokens stored by the contract\n   * @return uint256 representing the total amount of tokens\n   */\n  function totalSupply() public view returns (uint256) {\n    return allTokens.length;\n  }\n  \n  /**\n   * @dev Gets the token ID at a given index of the tokens list of the requested owner\n   * @param _owner address owning the tokens list to be accessed\n   * @param _index uint256 representing the index to be accessed of the requested tokens list\n   * @return uint256 token ID at the given index of the tokens list owned by the requested address\n   */\n  function tokenOfOwnerByIndex(address _owner, uint256 _index) public view returns (uint256) {\n    require(_index < balanceOf(_owner));\n    return ownedTokens[_owner][_index];\n  }\n\n  \n\n  /**\n   * @dev Gets the token ID at a given index of all the tokens in this contract\n   * @dev Reverts if the index is greater or equal to the total number of tokens\n   * @param _index uint256 representing the index to be accessed of the tokens list\n   * @return uint256 token ID at the given index of the tokens list\n   */\n  function tokenByIndex(uint256 _index) public view returns (uint256) {\n    require(_index < totalSupply());\n    return allTokens[_index];\n  }\n\n  /**\n   * @dev Internal function to set the token URI for a given token\n   * @dev Reverts if the token ID does not exist\n   * @param _tokenId uint256 ID of the token to set its URI\n   * @param _uri string URI to assign\n   */\n  function _setTokenURI(uint256 _tokenId, string _uri) internal {\n    require(exists(_tokenId));\n    tokenURIs[_tokenId] = _uri;\n  }\n\n  /**\n   * @dev Internal function to add a token ID to the list of a given address\n   * @param _to address representing the new owner of the given token ID\n   * @param _tokenId uint256 ID of the token to be added to the tokens list of the given address\n   */\n  function addTokenTo(address _to, uint256 _tokenId) internal {\n    super.addTokenTo(_to, _tokenId);\n    uint256 length = ownedTokens[_to].length;\n    ownedTokens[_to].push(_tokenId);\n    ownedTokensIndex[_tokenId] = length;\n  }\n\n  /**\n   * @dev Internal function to remove a token ID from the list of a given address\n   * @param _from address representing the previous owner of the given token ID\n   * @param _tokenId uint256 ID of the token to be removed from the tokens list of the given address\n   */\n  function removeTokenFrom(address _from, uint256 _tokenId) internal {\n    super.removeTokenFrom(_from, _tokenId);\n\n    uint256 tokenIndex = ownedTokensIndex[_tokenId];\n    uint256 lastTokenIndex = ownedTokens[_from].length.sub(1);\n    uint256 lastToken = ownedTokens[_from][lastTokenIndex];\n\n    ownedTokens[_from][tokenIndex] = lastToken;\n    ownedTokens[_from][lastTokenIndex] = 0;\n    // Note that this will handle single-element arrays. In that case, both tokenIndex and lastTokenIndex are going to\n    // be zero. Then we can make sure that we will remove _tokenId from the ownedTokens list since we are first swapping\n    // the lastToken to the first position, and then dropping the element placed in the last position of the list\n\n    ownedTokens[_from].length--;\n    ownedTokensIndex[_tokenId] = 0;\n    ownedTokensIndex[lastToken] = tokenIndex;\n  }\n\n  /**\n   * @dev Internal function to mint a new token\n   * @dev Reverts if the given token ID already exists\n   * @param _to address the beneficiary that will own the minted token\n   * @param _tokenId uint256 ID of the token to be minted by the msg.sender\n   */\n  function _mint(address _to, uint256 _tokenId) internal {\n    super._mint(_to, _tokenId);\n\n    allTokensIndex[_tokenId] = allTokens.length;\n    allTokens.push(_tokenId);\n  }\n\n  /**\n   * @dev Internal function to burn a specific token\n   * @dev Reverts if the token does not exist\n   * @param _owner owner of the token to burn\n   * @param _tokenId uint256 ID of the token being burned by the msg.sender\n   */\n  function _burn(address _owner, uint256 _tokenId) internal {\n    super._burn(_owner, _tokenId);\n\n    // Clear metadata (if any)\n    if (bytes(tokenURIs[_tokenId]).length != 0) {\n      delete tokenURIs[_tokenId];\n    }\n\n    // Reorg all tokens array\n    uint256 tokenIndex = allTokensIndex[_tokenId];\n    uint256 lastTokenIndex = allTokens.length.sub(1);\n    uint256 lastToken = allTokens[lastTokenIndex];\n\n    allTokens[tokenIndex] = lastToken;\n    allTokens[lastTokenIndex] = 0;\n\n    allTokens.length--;\n    allTokensIndex[_tokenId] = 0;\n    allTokensIndex[lastToken] = tokenIndex;\n  }\n}\n\ncontract StampBase is StampAccessControl, ERC721TokenImplement{\n    event CreateNewStamp(uint32 typeId, uint8 appearance);\n\n    function _createNewStamp(\n        uint32 _typeId,\n        uint256 _price,\n        uint8 _appearance\n    )\n        internal\n        returns (uint newTokenId)\n    {\n        require(_typeId == uint256(uint32(_typeId)));\n\n        Stamp memory _stamp = Stamp({\n            typeId:_typeId,\n            price:_price,\n            appearance:_appearance\n        });\n        newTokenId = stamps.push(_stamp) - 1;\n\n        require(newTokenId == uint256(uint32(newTokenId)));\n\n        emit CreateNewStamp(_typeId, _appearance);\n    }\n    \n    function _owns(address _claimant, uint256 _tokenId) internal view returns (bool) {\n        return tokenOwner[_tokenId] == _claimant;\n    }\n}\n\ncontract StampTransaction is StampBase {\n     \n    struct Trasaction {\n        uint128 price;\n        address seller;\n    }\n    \n    mapping (uint256 => Trasaction) tokenIdToTransaction;\n    \n    event TransactionCreated(uint256 tokenId, uint256 price);\n    event TransactionSuccessful(uint256 tokenId, uint256 price, address buyer);\n    event TransactionCancelled(uint256 tokenId);\n    \n    function _addTransaction(uint256 _tokenId, Trasaction _tracsaction) internal {\n        tokenIdToTransaction[_tokenId] = _tracsaction;\n\n        emit TransactionCreated(\n            uint256(_tokenId),\n            uint256(_tracsaction.price)\n        );\n    }\n\n    function _removeTransaction(uint256 _tokenId) internal {\n        delete tokenIdToTransaction[_tokenId];\n    }\n    \n    function cancelTransaction(uint256 _tokenId, address _seller) internal {\n        _removeTransaction(_tokenId);\n        transferFrom(address(this), _seller, _tokenId);\n        emit TransactionCancelled(_tokenId);\n    }\n\n    function _bid(uint256 _tokenId, uint256 _buyPrice) internal\n    {\n        Trasaction storage transactionn = tokenIdToTransaction[_tokenId];\n\n        address seller = transactionn.seller;\n        uint128 price = transactionn.price;\n        require(_buyPrice == price);\n        \n        _removeTransaction(_tokenId);\n        seller.transfer(_buyPrice-100);\n\n        emit TransactionSuccessful(_tokenId, _buyPrice, msg.sender);\n    }\n    \n    function createTransaction(uint256 _tokenId, uint256 _price, address _seller) public\n    {\n        require(_price == uint256(uint128(_price)));\n        require(ownerOf(_tokenId) == msg.sender);\n\n        transferFrom(msg.sender, address(this), _tokenId);\n        Trasaction memory tracsaction = Trasaction(\n            uint128(_price),\n            _seller\n        );\n        _addTransaction(_tokenId, tracsaction);\n    }\n\n    function buy(uint256 _tokenId) external payable\n    {\n        _bid(_tokenId, msg.value);\n        operatorApprovals[address(this)][msg.sender] = true;\n        approve(msg.sender, _tokenId);\n        transferFrom(address(this), msg.sender, _tokenId);\n    }\n    function transactionInfo(uint256 _tokenId)\n        external\n        view\n        returns (uint128 price, address seller) \n    {\n        Trasaction memory trasaction = tokenIdToTransaction[_tokenId];\n        price = trasaction.price;\n        seller = trasaction.seller;\n    }\n}\n\ncontract RepoTransaction is StampBase{\n    struct RepoIngots {\n        address seller;\n        uint256 tokenId;\n        uint256 repoCount;\n    }\n    \n    mapping (uint256 => RepoIngots) tokenIdToRepo;\n    \n    event RepoIngotsSuccessful(uint256 tokenId, uint256 repoCount, address seller);\n\n    function repoIngotsTransaction(uint256 _tokenId, uint256 _repoCount) public{\n        require(_owns(msg.sender, _tokenId));\n        transferFrom(msg.sender, address(this), _tokenId);\n        RepoIngots memory repoIngotsInfo = RepoIngots(\n            msg.sender,\n            _tokenId,\n            _repoCount\n        );\n        tokenIdToRepo[_tokenId] = repoIngotsInfo;\n        emit RepoIngotsSuccessful(_tokenId, _repoCount, msg.sender);\n    }\n    \n    function repoIngotsInfo(uint256 _tokenId) public view returns (uint256 tokenId, uint256 repoCount, address seller)\n    {\n         RepoIngots memory repoIngots = tokenIdToRepo[_tokenId];\n         tokenId = repoIngots.tokenId;\n         repoCount = repoIngots.repoCount;\n         seller = repoIngots.seller;\n    }\n}\n\ncontract StampMinting is StampTransaction, RepoTransaction {\n    uint256 public constant STAMP_SET_RELEASE_LIMIT = 3000;\n    uint256 public constant STAMP_TYPE_RELEASE_LIMIT = 30000;\n    \n    uint256 public setReleasedCount;\n    uint256 public stampTypeReleasedCount;\n\n    function releaseNewStampSet(uint16 _setId, uint32[] _typeIds) external onlyCOO{\n        require(setReleasedCount < STAMP_SET_RELEASE_LIMIT);\n        require(!isExistSet[_setId]);\n        require(_setId > 0);\n        require(_typeIds.length > 0);\n        StampSet memory _stampSet = StampSet({\n            setId:_setId,\n            typeIds:_typeIds\n        });\n        \n        for(uint8 i = 0; i < _typeIds.length; i++) {\n            TypeIdToSetId[_typeIds[i]] = _setId;\n        }\n        \n        stampSets.push(_stampSet);\n        SetIdToStampSet[_setId] = _stampSet;\n        isExistSet[_setId] = true;\n        setReleasedCount++;\n    }\n    \n    function releaseNewStampInfo(uint32 _setId, \n    uint32 _typeId,  uint32 _totalAmount, \n    uint16 _year, uint16 _idOfSet, bytes32 _name) external onlyCOO returns (uint32){\n        require(stampTypeReleasedCount < STAMP_TYPE_RELEASE_LIMIT);\n        require(!isExistStampType[_typeId]);\n        StampInfo memory stampInfo = StampInfo({\n            setId:_setId,\n            typeId:_typeId,\n            totalAmount:_totalAmount,\n            remainingAmount:_totalAmount,\n            year:_year,\n            idOfSet:_idOfSet,\n            name:_name\n        });\n        stampInfos.push(stampInfo);\n        TypeIdToStampInfo[_typeId] = stampInfo;\n        isExistStampType[_typeId] = true;\n        return _typeId;\n    }\n\n    function releaseNewStampToTransaction(\n        uint32 _typeId,\n        uint8 _appearance\n        ) \n        external \n        onlyCOO \n        returns (uint256)\n    {\n        StampInfo memory stampInfo = TypeIdToStampInfo[_typeId];\n        uint32 remainingAmount = stampInfo.remainingAmount;\n        require(remainingAmount>0);\n        require(isExistStampType[_typeId]);\n\n        uint32 totalAmount = stampInfo.totalAmount;\n        uint16 year = stampInfo.year;\n        uint256 price = _computeStampPrice(year, totalAmount, _appearance);\n        uint256 tokenId = _createNewStamp(_typeId, price, _appearance);\n        _mint(address(this), tokenId);\n        \n        Trasaction memory tracsaction = Trasaction(\n            uint128(price),\n            address(this)\n        );\n        _addTransaction(tokenId, tracsaction);\n        \n        stampInfo.remainingAmount--;\n        return tokenId;\n    }\n\n    function _computeStampPrice(uint16 _year, uint256 _totalCirculation, uint8 _appearance) internal pure returns (uint256 price) {\n        price= 33*(10**3)/((_year - 1959)*_totalCirculation);\n        if (_appearance == 0) {\n            price = 60000*price;\n        }\n        if (_appearance == 1) {\n            price = 1016*price;\n        }\n        if (_appearance == 2) {\n            price = 600*price;\n        }\n        if (_appearance == 3) {\n            price = 250*price;\n        }\n    }\n}\n\ncontract StampCollection is StampMinting {\n    address public newContractAddress;\n\n    constructor() public {\n        paused = false;\n        ceoAddress = msg.sender;\n        cooAddress = msg.sender;\n    }\n    function() external payable {\n    }\n    function setNewAddress(address _v2Address) external onlyCEO whenPaused {\n        newContractAddress = _v2Address;\n        emit ContractUpgrade(_v2Address);\n    }\n\n    function getStampInfo(uint16 _typeId) public view returns(uint32 setId, \n    uint32 typeId,  uint32 totalAmount, uint32 remainingAmount, \n    uint16 year, uint16 idOfSet, bytes32 name){\n        StampInfo memory _stampInfo = TypeIdToStampInfo[_typeId];\n        setId = _stampInfo.setId;\n        typeId = _stampInfo.typeId;\n        totalAmount = _stampInfo.totalAmount;\n        remainingAmount = _stampInfo.remainingAmount;\n        year = _stampInfo.year;\n        idOfSet = _stampInfo.idOfSet;\n        name = _stampInfo.name;\n    }\n    \n    function getStamp(uint256 _typeId)\n        external\n        view\n        returns (\n        uint32 typeId,\n        uint8 appearance,\n        uint256 price\n    ) \n    {\n        Stamp storage stamp = stamps[_typeId];\n        typeId = stamp.typeId;\n        appearance = stamp.appearance;\n        price = stamp.price;\n    }\n\n    function getStampSetInfo(uint16 _setId) public view returns(uint16 setId, uint32[] typeIds){\n        StampSet memory stampSet = SetIdToStampSet[_setId];\n        setId = stampSet.setId;\n        typeIds = stampSet.typeIds;\n    }\n    \n    function existStampSet(uint16 _setId) public view returns (bool) {\n        StampSet memory stampSet = SetIdToStampSet[_setId];\n        return stampSet.setId != 0;\n    }\n    \n    function existStampInfo(uint16 _typeId) public view returns (bool) {\n        StampInfo memory stampInfo = TypeIdToStampInfo[_typeId];\n        return stampInfo.setId != 0 && stampInfo.typeId != 0;\n    }\n    \n    function unpause() public onlyCEO whenPaused {\n        require(newContractAddress == address(0));\n        super.unpause();\n    }\n\n    function withdrawBalance() external onlyCFO {\n        uint256 balance = address(this).balance;\n        cfoAddress.transfer(balance);\n    }\n}\n",
  "sourcePath": "/Users/gm/Documents/Ethereum-Learning/StampCollection/StampCollectionContract/contracts/StampCollection.sol",
  "compiler": {
    "name": "solc",
    "version": "0.4.23+commit.124ca40d.Emscripten.clang"
  },
  "schemaVersion": "2.0.0",
  "updatedAt": "2018-06-15T14:23:13.145Z"
}