{
  "contractName": "Transaction",
  "abi": [
    {
      "constant": true,
      "inputs": [],
      "name": "isEtherTransaction",
      "outputs": [
        {
          "name": "",
          "type": "bool"
        }
      ],
      "payable": false,
      "stateMutability": "view",
      "type": "function"
    },
    {
      "constant": true,
      "inputs": [],
      "name": "nonFungibleContract",
      "outputs": [
        {
          "name": "",
          "type": "address"
        }
      ],
      "payable": false,
      "stateMutability": "view",
      "type": "function"
    },
    {
      "inputs": [
        {
          "name": "_nftAddress",
          "type": "address"
        },
        {
          "name": "_cut",
          "type": "uint256"
        }
      ],
      "payable": false,
      "stateMutability": "nonpayable",
      "type": "constructor"
    },
    {
      "anonymous": false,
      "inputs": [
        {
          "indexed": false,
          "name": "tokenId",
          "type": "uint256"
        },
        {
          "indexed": false,
          "name": "price",
          "type": "uint256"
        }
      ],
      "name": "TransactionCreated",
      "type": "event"
    },
    {
      "anonymous": false,
      "inputs": [
        {
          "indexed": false,
          "name": "tokenId",
          "type": "uint256"
        },
        {
          "indexed": false,
          "name": "price",
          "type": "uint256"
        },
        {
          "indexed": false,
          "name": "buyer",
          "type": "address"
        }
      ],
      "name": "TransactionSuccessful",
      "type": "event"
    },
    {
      "anonymous": false,
      "inputs": [
        {
          "indexed": false,
          "name": "tokenId",
          "type": "uint256"
        }
      ],
      "name": "TransactionCancelled",
      "type": "event"
    },
    {
      "constant": false,
      "inputs": [
        {
          "name": "_tokenId",
          "type": "uint256"
        },
        {
          "name": "_price",
          "type": "uint256"
        },
        {
          "name": "_seller",
          "type": "address"
        }
      ],
      "name": "createTransaction",
      "outputs": [],
      "payable": false,
      "stateMutability": "nonpayable",
      "type": "function"
    },
    {
      "constant": false,
      "inputs": [
        {
          "name": "_tokenId",
          "type": "uint256"
        }
      ],
      "name": "bid",
      "outputs": [],
      "payable": true,
      "stateMutability": "payable",
      "type": "function"
    }
  ],
  "bytecode": "0x608060405260016000806101000a81548160ff02191690831515021790555034801561002a57600080fd5b50604051604080610aec8339810180604052810190808051906020019092919080519060200190929190505050600082905080600060016101000a81548173ffffffffffffffffffffffffffffffffffffffff021916908373ffffffffffffffffffffffffffffffffffffffff160217905550505050610a3d806100af6000396000f300608060405260043610610062576000357c0100000000000000000000000000000000000000000000000000000000900463ffffffff1680630f63cc8f14610067578063454a2ab314610096578063a82f8d58146100b6578063dd1b7a0f1461010d575b600080fd5b34801561007357600080fd5b5061007c610164565b604051808215151515815260200191505060405180910390f35b6100b460048036038101908080359060200190929190505050610176565b005b3480156100c257600080fd5b5061010b6004803603810190808035906020019092919080359060200190929190803573ffffffffffffffffffffffffffffffffffffffff169060200190929190505050610294565b005b34801561011957600080fd5b506101226104e9565b604051808273ffffffffffffffffffffffffffffffffffffffff1673ffffffffffffffffffffffffffffffffffffffff16815260200191505060405180910390f35b6000809054906101000a900460ff1681565b610180813461050f565b600060019054906101000a900473ffffffffffffffffffffffffffffffffffffffff1673ffffffffffffffffffffffffffffffffffffffff166323b872dd3033846040518463ffffffff167c0100000000000000000000000000000000000000000000000000000000028152600401808473ffffffffffffffffffffffffffffffffffffffff1673ffffffffffffffffffffffffffffffffffffffff1681526020018373ffffffffffffffffffffffffffffffffffffffff1673ffffffffffffffffffffffffffffffffffffffff1681526020018281526020019350505050600060405180830381600087803b15801561027957600080fd5b505af115801561028d573d6000803e3d6000fd5b5050505050565b61029c6109cf565b826fffffffffffffffffffffffffffffffff16831415156102bc57600080fd5b6102c6338561065d565b15156102d157600080fd5b600060019054906101000a900473ffffffffffffffffffffffffffffffffffffffff1673ffffffffffffffffffffffffffffffffffffffff1663a22cb4653060016040518363ffffffff167c0100000000000000000000000000000000000000000000000000000000028152600401808373ffffffffffffffffffffffffffffffffffffffff1673ffffffffffffffffffffffffffffffffffffffff1681526020018215151515815260200192505050600060405180830381600087803b15801561039b57600080fd5b505af11580156103af573d6000803e3d6000fd5b50505050600060019054906101000a900473ffffffffffffffffffffffffffffffffffffffff1673ffffffffffffffffffffffffffffffffffffffff1663095ea7b330866040518363ffffffff167c0100000000000000000000000000000000000000000000000000000000028152600401808373ffffffffffffffffffffffffffffffffffffffff1673ffffffffffffffffffffffffffffffffffffffff16815260200182815260200192505050600060405180830381600087803b15801561047857600080fd5b505af115801561048c573d6000803e3d6000fd5b5050505061049a3385610761565b6040805190810160405280846fffffffffffffffffffffffffffffffff1681526020018373ffffffffffffffffffffffffffffffffffffffff1681525090506104e38482610876565b50505050565b600060019054906101000a900473ffffffffffffffffffffffffffffffffffffffff1681565b60008060006001600086815260200190815260200160002092508260010160009054906101000a900473ffffffffffffffffffffffffffffffffffffffff1691508260000160009054906101000a90046fffffffffffffffffffffffffffffffff169050806fffffffffffffffffffffffffffffffff168414151561059357600080fd5b61059c8561096c565b8173ffffffffffffffffffffffffffffffffffffffff166108fc859081150290604051600060405180830381858888f193505050501580156105e2573d6000803e3d6000fd5b507f7b31057475c88e821f05f6e63ac0a08a794cf369937c11da22272b73ef90187f858533604051808481526020018381526020018273ffffffffffffffffffffffffffffffffffffffff1673ffffffffffffffffffffffffffffffffffffffff168152602001935050505060405180910390a15050505050565b60008273ffffffffffffffffffffffffffffffffffffffff16600060019054906101000a900473ffffffffffffffffffffffffffffffffffffffff1673ffffffffffffffffffffffffffffffffffffffff16636352211e846040518263ffffffff167c010000000000000000000000000000000000000000000000000000000002815260040180828152602001915050602060405180830381600087803b15801561070757600080fd5b505af115801561071b573d6000803e3d6000fd5b505050506040513d602081101561073157600080fd5b810190808051906020019092919050505073ffffffffffffffffffffffffffffffffffffffff1614905092915050565b600060019054906101000a900473ffffffffffffffffffffffffffffffffffffffff1673ffffffffffffffffffffffffffffffffffffffff166323b872dd8330846040518463ffffffff167c0100000000000000000000000000000000000000000000000000000000028152600401808473ffffffffffffffffffffffffffffffffffffffff1673ffffffffffffffffffffffffffffffffffffffff1681526020018373ffffffffffffffffffffffffffffffffffffffff1673ffffffffffffffffffffffffffffffffffffffff1681526020018281526020019350505050600060405180830381600087803b15801561085a57600080fd5b505af115801561086e573d6000803e3d6000fd5b505050505050565b806001600084815260200190815260200160002060008201518160000160006101000a8154816fffffffffffffffffffffffffffffffff02191690836fffffffffffffffffffffffffffffffff16021790555060208201518160010160006101000a81548173ffffffffffffffffffffffffffffffffffffffff021916908373ffffffffffffffffffffffffffffffffffffffff1602179055509050507f6110ba4ca3a2a4b05be8a5160cfb9b4dfbdc1738e1c8e424a1546fc3f2bce8438282600001516fffffffffffffffffffffffffffffffff16604051808381526020018281526020019250505060405180910390a15050565b60016000828152602001908152602001600020600080820160006101000a8154906fffffffffffffffffffffffffffffffff02191690556001820160006101000a81549073ffffffffffffffffffffffffffffffffffffffff0219169055505050565b604080519081016040528060006fffffffffffffffffffffffffffffffff168152602001600073ffffffffffffffffffffffffffffffffffffffff16815250905600a165627a7a723058204aefd815e3c25a79cc605086a0ed0a2423f5fa2338bbbdc78346306d75a8a73c0029",
  "source": "pragma solidity ^0.4.23;\n\nimport \"./ERC721/ERC721.sol\";\nimport \"./ERC721/ERC721Basic.sol\";\nimport \"./ERC721/ERC721Receiver.sol\";\nimport \"./math/SafeMath.sol\";\nimport \"./AddressUtils.sol\";\n\ncontract Ownable {\n  address public owner;\n\n\n  constructor() public {\n    owner = msg.sender;\n  }\n\n  modifier onlyOwner() {\n    require(msg.sender == owner);\n    _;\n  }\n\n  function transferOwnership(address newOwner) public onlyOwner {\n    if (newOwner != address(0)) {\n      owner = newOwner;\n    }\n  }\n\n}\n\ncontract Pausable is Ownable {\n  event Pause();\n  event Unpause();\n\n  bool public paused = false;\n\n  modifier whenNotPaused() {\n    require(!paused);\n    _;\n  }\n\n  modifier whenPaused {\n    require(paused);\n    _;\n  }\n\n  function pause() onlyOwner public whenNotPaused returns (bool) {\n    paused = true;\n    emit Pause();\n    return true;\n  }\n\n  function unpause() onlyOwner public whenPaused returns (bool) {\n    paused = false;\n    emit Unpause();\n    return true;\n  }\n}\n\ncontract StampAccessControl {\n    event ContractUpgrade(address newContract);\n\n    address public ceoAddress;\n    address public cfoAddress;\n    address public cooAddress;\n\n    bool public paused = false;\n\n    modifier onlyCEO() {\n        require(msg.sender == ceoAddress);\n        _;\n    }\n\n    modifier onlyCFO() {\n        require(msg.sender == cfoAddress);\n        _;\n    }\n\n    modifier onlyCOO() {\n        require(msg.sender == cooAddress);\n        _;\n    }\n\n    modifier onlyCLevel() {\n        require(\n            msg.sender == cooAddress ||\n            msg.sender == ceoAddress ||\n            msg.sender == cfoAddress\n        );\n        _;\n    }\n\n    function setCEO(address _newCEO) external onlyCEO {\n        require(_newCEO != address(0));\n\n        ceoAddress = _newCEO;\n    }\n\n    function setCFO(address _newCFO) external onlyCEO {\n        require(_newCFO != address(0));\n\n        cfoAddress = _newCFO;\n    }\n\n    function setCOO(address _newCOO) external onlyCEO {\n        require(_newCOO != address(0));\n\n        cooAddress = _newCOO;\n    }\n\n    modifier whenNotPaused() {\n        require(!paused);\n        _;\n    }\n\n    modifier whenPaused {\n        require(paused);\n        _;\n    }\n\n    function pause() external onlyCLevel whenNotPaused {\n        paused = true;\n    }\n\n    function unpause() public onlyCEO whenPaused {\n        paused = false;\n    }\n}\n\ncontract StampDataSource {\n        /*** DATA TYPES ***/\n    struct Stamp {\n        uint32 stampId;\n        uint16 year;\n        uint16 setId;\n        uint8  memberOfSetId;\n        uint32 totalAmount;\n        uint32 remainingAmount;\n        bytes32 name;\n        uint8 appearance;\n    }\n    \n    struct StampSet {\n        uint16 setId;\n        uint8[] membersId;\n    }\n\n    /*** STORAGE ***/\n    Stamp[] stamps;\n    StampSet[] stampSets;\n    mapping(uint32=>uint256) internal SetIdOfStamp;\n}\n\n\n\ncontract ERC721BasicToken is ERC721Basic {\n  using SafeMath for uint256;\n  using AddressUtils for address;\n\n  bytes4 constant ERC721_RECEIVED = 0xf0b9e5ba;\n\n  // Mapping from token ID to owner\n  mapping (uint256 => address) internal tokenOwner;\n\n  // Mapping from token ID to approved address\n  mapping (uint256 => address) internal tokenApprovals;\n\n  // Mapping from owner to number of owned token\n  mapping (address => uint256) internal ownedTokensCount;\n\n  // Mapping from owner to operator approvals\n  mapping (address => mapping (address => bool)) internal operatorApprovals;\n\n  /**\n   * @dev Guarantees msg.sender is owner of the given token\n   * @param _tokenId uint256 ID of the token to validate its ownership belongs to msg.sender\n   */\n  modifier onlyOwnerOf(uint256 _tokenId) {\n    require(ownerOf(_tokenId) == msg.sender);\n    _;\n  }\n\n  /**\n   * @dev Checks msg.sender can transfer a token, by being owner, approved, or operator\n   * @param _tokenId uint256 ID of the token to validate\n   */\n  modifier canTransfer(uint256 _tokenId) {\n    require(isApprovedOrOwner(msg.sender, _tokenId));\n    _;\n  }\n\n  /**\n   * @dev Gets the balance of the specified address\n   * @param _owner address to query the balance of\n   * @return uint256 representing the amount owned by the passed address\n   */\n  function balanceOf(address _owner) public view returns (uint256) {\n    require(_owner != address(0));\n    return ownedTokensCount[_owner];\n  }\n\n  /**\n   * @dev Gets the owner of the specified token ID\n   * @param _tokenId uint256 ID of the token to query the owner of\n   * @return owner address currently marked as the owner of the given token ID\n   */\n  function ownerOf(uint256 _tokenId) public view returns (address) {\n    address owner = tokenOwner[_tokenId];\n    require(owner != address(0));\n    return owner;\n  }\n\n  /**\n   * @dev Returns whether the specified token exists\n   * @param _tokenId uint256 ID of the token to query the existance of\n   * @return whether the token exists\n   */\n  function exists(uint256 _tokenId) public view returns (bool) {\n    address owner = tokenOwner[_tokenId];\n    return owner != address(0);\n  }\n\n  /**\n   * @dev Approves another address to transfer the given token ID\n   * @dev The zero address indicates there is no approved address.\n   * @dev There can only be one approved address per token at a given time.\n   * @dev Can only be called by the token owner or an approved operator.\n   * @param _to address to be approved for the given token ID\n   * @param _tokenId uint256 ID of the token to be approved\n   */\n  function approve(address _to, uint256 _tokenId) public {\n    address owner = ownerOf(_tokenId);\n    require(_to != owner);\n    require(msg.sender == owner || isApprovedForAll(owner, msg.sender));\n\n    if (getApproved(_tokenId) != address(0) || _to != address(0)) {\n      tokenApprovals[_tokenId] = _to;\n      emit Approval(owner, _to, _tokenId);\n    }\n  }\n\n  /**\n   * @dev Gets the approved address for a token ID, or zero if no address set\n   * @param _tokenId uint256 ID of the token to query the approval of\n   * @return address currently approved for a the given token ID\n   */\n  function getApproved(uint256 _tokenId) public view returns (address) {\n    return tokenApprovals[_tokenId];\n  }\n\n  /**\n   * @dev Sets or unsets the approval of a given operator\n   * @dev An operator is allowed to transfer all tokens of the sender on their behalf\n   * @param _to operator address to set the approval\n   * @param _approved representing the status of the approval to be set\n   */\n  function setApprovalForAll(address _to, bool _approved) public {\n    require(_to != msg.sender);\n    operatorApprovals[msg.sender][_to] = _approved;\n    emit ApprovalForAll(msg.sender, _to, _approved);\n  }\n\n  /**\n   * @dev Tells whether an operator is approved by a given owner\n   * @param _owner owner address which you want to query the approval of\n   * @param _operator operator address which you want to query the approval of\n   * @return bool whether the given operator is approved by the given owner\n   */\n  function isApprovedForAll(address _owner, address _operator) public view returns (bool approved) {\n   approved = operatorApprovals[_owner][_operator];\n  }\n\n  /**\n   * @dev Transfers the ownership of a given token ID to another address\n   * @dev Usage of this method is discouraged, use `safeTransferFrom` whenever possible\n   * @dev Requires the msg sender to be the owner, approved, or operator\n   * @param _from current owner of the token\n   * @param _to address to receive the ownership of the given token ID\n   * @param _tokenId uint256 ID of the token to be transferred\n  */\n  function transferFrom(address _from, address _to, uint256 _tokenId) public canTransfer(_tokenId){\n    require(_from != address(0));\n    require(_to != address(0));\n\n    clearApproval(_from, _tokenId);\n    removeTokenFrom(_from, _tokenId);\n    addTokenTo(_to, _tokenId);\n\n    emit Transfer(_from, _to, _tokenId);\n  }\n\n  /**\n   * @dev Safely transfers the ownership of a given token ID to another address\n   * @dev If the target address is a contract, it must implement `onERC721Received`,\n   *  which is called upon a safe transfer, and return the magic value\n   *  `bytes4(keccak256(\"onERC721Received(address,uint256,bytes)\"))`; otherwise,\n   *  the transfer is reverted.\n   * @dev Requires the msg sender to be the owner, approved, or operator\n   * @param _from current owner of the token\n   * @param _to address to receive the ownership of the given token ID\n   * @param _tokenId uint256 ID of the token to be transferred\n  */\n  function safeTransferFrom(\n    address _from,\n    address _to,\n    uint256 _tokenId\n  )\n    public\n    canTransfer(_tokenId)\n  {\n    // solium-disable-next-line arg-overflow\n    safeTransferFrom(_from, _to, _tokenId, \"\");\n  }\n\n  /**\n   * @dev Safely transfers the ownership of a given token ID to another address\n   * @dev If the target address is a contract, it must implement `onERC721Received`,\n   *  which is called upon a safe transfer, and return the magic value\n   *  `bytes4(keccak256(\"onERC721Received(address,uint256,bytes)\"))`; otherwise,\n   *  the transfer is reverted.\n   * @dev Requires the msg sender to be the owner, approved, or operator\n   * @param _from current owner of the token\n   * @param _to address to receive the ownership of the given token ID\n   * @param _tokenId uint256 ID of the token to be transferred\n   * @param _data bytes data to send along with a safe transfer check\n   */\n  function safeTransferFrom(\n    address _from,\n    address _to,\n    uint256 _tokenId,\n    bytes _data\n  )\n    public\n    canTransfer(_tokenId)\n  {\n    transferFrom(_from, _to, _tokenId);\n    // solium-disable-next-line arg-overflow\n    require(checkAndCallSafeTransfer(_from, _to, _tokenId, _data));\n  }\n\n  /**\n   * @dev Returns whether the given spender can transfer a given token ID\n   * @param _spender address of the spender to query\n   * @param _tokenId uint256 ID of the token to be transferred\n   * @return bool whether the msg.sender is approved for the given token ID,\n   *  is an operator of the owner, or is the owner of the token\n   */\n  function isApprovedOrOwner(address _spender, uint256 _tokenId) internal view returns (bool) {\n    address owner = ownerOf(_tokenId);\n    return _spender == owner || getApproved(_tokenId) == _spender || isApprovedForAll(owner, _spender);\n  }\n\n  /**\n   * @dev Internal function to mint a new token\n   * @dev Reverts if the given token ID already exists\n   * @param _to The address that will own the minted token\n   * @param _tokenId uint256 ID of the token to be minted by the msg.sender\n   */\n  function _mint(address _to, uint256 _tokenId) internal {\n    require(_to != address(0));\n    addTokenTo(_to, _tokenId);\n    emit Transfer(address(0), _to, _tokenId);\n  }\n\n  /**\n   * @dev Internal function to burn a specific token\n   * @dev Reverts if the token does not exist\n   * @param _tokenId uint256 ID of the token being burned by the msg.sender\n   */\n  function _burn(address _owner, uint256 _tokenId) internal {\n    clearApproval(_owner, _tokenId);\n    removeTokenFrom(_owner, _tokenId);\n    emit Transfer(_owner, address(0), _tokenId);\n  }\n\n  /**\n   * @dev Internal function to clear current approval of a given token ID\n   * @dev Reverts if the given address is not indeed the owner of the token\n   * @param _owner owner of the token\n   * @param _tokenId uint256 ID of the token to be transferred\n   */\n  function clearApproval(address _owner, uint256 _tokenId) internal {\n    require(ownerOf(_tokenId) == _owner);\n    if (tokenApprovals[_tokenId] != address(0)) {\n      tokenApprovals[_tokenId] = address(0);\n      emit Approval(_owner, address(0), _tokenId);\n    }\n  }\n\n  /**\n   * @dev Internal function to add a token ID to the list of a given address\n   * @param _to address representing the new owner of the given token ID\n   * @param _tokenId uint256 ID of the token to be added to the tokens list of the given address\n   */\n  function addTokenTo(address _to, uint256 _tokenId) internal {\n    require(tokenOwner[_tokenId] == address(0));\n    tokenOwner[_tokenId] = _to;\n    ownedTokensCount[_to] = ownedTokensCount[_to].add(1);\n  }\n\n  /**\n   * @dev Internal function to remove a token ID from the list of a given address\n   * @param _from address representing the previous owner of the given token ID\n   * @param _tokenId uint256 ID of the token to be removed from the tokens list of the given address\n   */\n  function removeTokenFrom(address _from, uint256 _tokenId) internal {\n    require(ownerOf(_tokenId) == _from);\n    ownedTokensCount[_from] = ownedTokensCount[_from].sub(1);\n    tokenOwner[_tokenId] = address(0);\n  }\n\n  /**\n   * @dev Internal function to invoke `onERC721Received` on a target address\n   * @dev The call is not executed if the target address is not a contract\n   * @param _from address representing the previous owner of the given token ID\n   * @param _to target address that will receive the tokens\n   * @param _tokenId uint256 ID of the token to be transferred\n   * @param _data bytes optional data to send along with the call\n   * @return whether the call correctly returned the expected magic value\n   */\n  function checkAndCallSafeTransfer(\n    address _from,\n    address _to,\n    uint256 _tokenId,\n    bytes _data\n  )\n    internal\n    returns (bool)\n  {\n    if (!_to.isContract()) {\n      return true;\n    }\n    bytes4 retval = ERC721Receiver(_to).onERC721Received(_from, _tokenId, _data);\n    return (retval == ERC721_RECEIVED);\n  }\n}\n\ncontract ERC721TokenImplement is StampDataSource, ERC721, ERC721BasicToken {\n  \n    // Token name\n    string internal name_ = \"StampToken\";\n\n    // Token symbol\n    string internal symbol_ = \"ST\";\n\n  // Mapping from owner to list of owned token IDs\n  mapping (address => uint256[]) internal ownedTokens;\n\n  // Mapping from token ID to index of the owner tokens list\n  mapping(uint256 => uint256) internal ownedTokensIndex;\n\n  // Array with all token ids, used for enumeration\n  uint256[] internal allTokens;\n\n  // Mapping from token id to position in the allTokens array\n  mapping(uint256 => uint256) internal allTokensIndex;\n\n  // Optional mapping for token URIs\n  mapping(uint256 => string) internal tokenURIs;\n\n  /**\n   * @dev Gets the token name\n   * @return string representing the token name\n   */\n  function name() public view returns (string) {\n    return name_;\n  }\n\n  /**\n   * @dev Gets the token symbol\n   * @return string representing the token symbol\n   */\n  function symbol() public view returns (string) {\n    return symbol_;\n  }\n\n  /**\n   * @dev Returns an URI for a given token ID\n   * @dev Throws if the token ID does not exist. May return an empty string.\n   * @param _tokenId uint256 ID of the token to query\n   */\n  function tokenURI(uint256 _tokenId) public view returns (string) {\n    require(exists(_tokenId));\n    return tokenURIs[_tokenId];\n  }\n\n  /**\n   * @dev Gets the total amount of tokens stored by the contract\n   * @return uint256 representing the total amount of tokens\n   */\n  function totalSupply() public view returns (uint256) {\n    return allTokens.length;\n  }\n  \n  /**\n   * @dev Gets the token ID at a given index of the tokens list of the requested owner\n   * @param _owner address owning the tokens list to be accessed\n   * @param _index uint256 representing the index to be accessed of the requested tokens list\n   * @return uint256 token ID at the given index of the tokens list owned by the requested address\n   */\n  function tokenOfOwnerByIndex(address _owner, uint256 _index) public view returns (uint256) {\n    require(_index < balanceOf(_owner));\n    return ownedTokens[_owner][_index];\n  }\n\n  \n\n  /**\n   * @dev Gets the token ID at a given index of all the tokens in this contract\n   * @dev Reverts if the index is greater or equal to the total number of tokens\n   * @param _index uint256 representing the index to be accessed of the tokens list\n   * @return uint256 token ID at the given index of the tokens list\n   */\n  function tokenByIndex(uint256 _index) public view returns (uint256) {\n    require(_index < totalSupply());\n    return allTokens[_index];\n  }\n\n  /**\n   * @dev Internal function to set the token URI for a given token\n   * @dev Reverts if the token ID does not exist\n   * @param _tokenId uint256 ID of the token to set its URI\n   * @param _uri string URI to assign\n   */\n  function _setTokenURI(uint256 _tokenId, string _uri) internal {\n    require(exists(_tokenId));\n    tokenURIs[_tokenId] = _uri;\n  }\n\n  /**\n   * @dev Internal function to add a token ID to the list of a given address\n   * @param _to address representing the new owner of the given token ID\n   * @param _tokenId uint256 ID of the token to be added to the tokens list of the given address\n   */\n  function addTokenTo(address _to, uint256 _tokenId) internal {\n    super.addTokenTo(_to, _tokenId);\n    uint256 length = ownedTokens[_to].length;\n    ownedTokens[_to].push(_tokenId);\n    ownedTokensIndex[_tokenId] = length;\n  }\n\n  /**\n   * @dev Internal function to remove a token ID from the list of a given address\n   * @param _from address representing the previous owner of the given token ID\n   * @param _tokenId uint256 ID of the token to be removed from the tokens list of the given address\n   */\n  function removeTokenFrom(address _from, uint256 _tokenId) internal {\n    super.removeTokenFrom(_from, _tokenId);\n\n    uint256 tokenIndex = ownedTokensIndex[_tokenId];\n    uint256 lastTokenIndex = ownedTokens[_from].length.sub(1);\n    uint256 lastToken = ownedTokens[_from][lastTokenIndex];\n\n    ownedTokens[_from][tokenIndex] = lastToken;\n    ownedTokens[_from][lastTokenIndex] = 0;\n    // Note that this will handle single-element arrays. In that case, both tokenIndex and lastTokenIndex are going to\n    // be zero. Then we can make sure that we will remove _tokenId from the ownedTokens list since we are first swapping\n    // the lastToken to the first position, and then dropping the element placed in the last position of the list\n\n    ownedTokens[_from].length--;\n    ownedTokensIndex[_tokenId] = 0;\n    ownedTokensIndex[lastToken] = tokenIndex;\n  }\n\n  /**\n   * @dev Internal function to mint a new token\n   * @dev Reverts if the given token ID already exists\n   * @param _to address the beneficiary that will own the minted token\n   * @param _tokenId uint256 ID of the token to be minted by the msg.sender\n   */\n  function _mint(address _to, uint256 _tokenId) internal {\n    super._mint(_to, _tokenId);\n\n    allTokensIndex[_tokenId] = allTokens.length;\n    allTokens.push(_tokenId);\n  }\n\n  /**\n   * @dev Internal function to burn a specific token\n   * @dev Reverts if the token does not exist\n   * @param _owner owner of the token to burn\n   * @param _tokenId uint256 ID of the token being burned by the msg.sender\n   */\n  function _burn(address _owner, uint256 _tokenId) internal {\n    super._burn(_owner, _tokenId);\n\n    // Clear metadata (if any)\n    if (bytes(tokenURIs[_tokenId]).length != 0) {\n      delete tokenURIs[_tokenId];\n    }\n\n    // Reorg all tokens array\n    uint256 tokenIndex = allTokensIndex[_tokenId];\n    uint256 lastTokenIndex = allTokens.length.sub(1);\n    uint256 lastToken = allTokens[lastTokenIndex];\n\n    allTokens[tokenIndex] = lastToken;\n    allTokens[lastTokenIndex] = 0;\n\n    allTokens.length--;\n    allTokensIndex[_tokenId] = 0;\n    allTokensIndex[lastToken] = tokenIndex;\n  }\n}\n\ncontract StampBase is StampAccessControl, ERC721TokenImplement{\n    event CreateNewStamp(uint32 stampId, \n                            uint32 totalAmount, \n                            uint32 remainingAmount, \n                            bytes32 name,\n                            uint16 year, \n                            uint16 setId, \n                            uint8  memberOfSetId,\n                            uint8 appearance\n                            );\n\n    function _createNewStamp(\n        uint32 _stampId,\n        uint32 _totalAmount,\n        uint32 _remainingAmount,\n        bytes32 _name,\n        uint16 _year,\n        uint16 _setId,\n        uint8 _memberOfSetId,\n        uint8 _appearance\n    )\n        internal\n        returns (uint newTokenId)\n    {\n        require(_stampId == uint256(uint32(_stampId)));\n\n        Stamp memory _stamp = Stamp({\n            stampId:_stampId,\n            year:_year,\n            setId:_setId,\n            memberOfSetId:_memberOfSetId,\n            totalAmount:_totalAmount,\n            remainingAmount:_remainingAmount,\n            name:_name,\n            appearance:_appearance\n        });\n        newTokenId = stamps.push(_stamp) - 1;\n\n        require(newTokenId == uint256(uint32(newTokenId)));\n\n        emit CreateNewStamp(_stampId, _totalAmount, _remainingAmount,  _name, _year, _setId, _memberOfSetId, _appearance);\n    }\n    \n    function _owns(address _claimant, uint256 _tokenId) internal view returns (bool) {\n        return tokenOwner[_tokenId] == _claimant;\n    }\n    \n    \n    function contractApprove(address _to, uint256 _tokenId) internal {\n        require(_to != msg.sender);\n        operatorApprovals[address(this)][_to] = true;\n        emit ApprovalForAll(address(this), _to, true);\n        \n        address owner = ownerOf(_tokenId);\n        require(_to != owner);\n        require(isApprovedForAll(owner, _to));\n\n        if (getApproved(_tokenId) != address(0) || _to != address(0)) {\n            tokenApprovals[_tokenId] = _to;\n            emit Approval(owner, _to, _tokenId);\n        }\n    }\n}\n\ncontract StampAuction is StampBase {\n    SaleClockAuction public saleAuction;\n    function setSaleAuctionAddress(address _address) external onlyCEO {\n        SaleClockAuction candidateContract = SaleClockAuction(_address);\n        require(candidateContract.isSaleClockAuction());\n        saleAuction = candidateContract;\n    }\n\n    function createSaleAuction(\n        uint256 _tokenId,\n        uint256 _startingPrice,\n        uint256 _endingPrice,\n        uint256 _duration\n    )\n        external\n        whenNotPaused\n    {\n        require(_owns(msg.sender, _tokenId));\n        \n        approve(saleAuction, _tokenId);\n\n        saleAuction.createAuction(\n            _tokenId,\n            _startingPrice,\n            _endingPrice,\n            _duration,\n            msg.sender\n        );\n    }\n}\n\ncontract StampTransaction is StampBase {\n    SaleTransaction public saleTransaction;\n    function setEtherTransaction(address _address) external onlyCEO {\n        SaleTransaction candidateContract = SaleTransaction(_address);\n        require(candidateContract.isEtherTransaction());\n        saleTransaction = candidateContract;\n    }\n    function userApprove(address _to, uint256 _tokenId) internal {\n        require(_to != msg.sender);\n        operatorApprovals[msg.sender][_to] = true;\n        emit ApprovalForAll(msg.sender, _to, true);\n        \n        address owner = ownerOf(_tokenId);\n        require(_to != owner);\n        require(isApprovedForAll(owner, _to));\n\n        if (getApproved(_tokenId) != address(0) || _to != address(0)) {\n            tokenApprovals[_tokenId] = _to;\n            emit Approval(owner, _to, _tokenId);\n        }\n    }\n    function createEtherTransaction(uint256 _tokenId, uint256 _price, address _seller) external whenNotPaused\n    {\n        require(_owns(msg.sender, _tokenId));\n        userApprove(saleTransaction, _tokenId);\n        saleTransaction.createTransaction(\n            _tokenId,\n            _price,\n            _seller\n        );\n    }\n}\n\ncontract StampMinting is StampTransaction {\n    uint256 public constant PROMO_CREATION_LIMIT = 50000;\n    uint256 public constant HISTORY_CREATION_LIMIT = 4500000;\n    uint256 public constant STAMP_STARTING_PRICE = 10 finney;\n    uint256 public constant STAMP_AUCTION_DURATION = 7 days;\n    uint256 public promoCreatedCount;\n    uint256 public stampCreatedCount;\n\n    function releaseNewStampSet(uint16 _setId, uint8[] _membersId) external onlyCOO {\n        StampSet memory _stampSet = StampSet({\n            setId:_setId,\n            membersId:_membersId\n        });\n        for(uint16 i = 0; i < _membersId.length; i++) {\n            SetIdOfStamp[_membersId[i]] = _setId;\n        }\n        stampSets.push(_stampSet);\n    }\n\n    function releaseNewPromoStampToAuction(\n        uint32 _stampId,\n        uint16 _year,\n        uint16 _setId,\n        uint8 _memberOfSetId,\n        uint32 _totalAmount,\n        uint32 _remainingAmount,\n        bytes32 _name,\n        address _owner,\n        uint8 _appearance) \n        external \n        onlyCOO \n    {\n        address stampOwner = _owner;\n        if (stampOwner == address(0)) {\n             stampOwner = cooAddress;\n        }\n        require(promoCreatedCount < PROMO_CREATION_LIMIT);\n\n            \n        _createNewStamp(_stampId, _totalAmount, _remainingAmount, _name, _year, _setId, _memberOfSetId, _appearance);\n        promoCreatedCount++;\n        \n    }\n\n    function releaseNewStampToTransaction(\n        uint32 _stampId,\n        uint32 _totalAmount,\n        uint32 _remainingAmount,\n        bytes32 _name,\n        uint16 _year,\n        uint16 _setId,\n        uint8 _memberOfSetId,\n        uint8 _appearance\n        ) \n        external \n        onlyCOO \n        returns (uint256)\n    {\n        require(stampCreatedCount < HISTORY_CREATION_LIMIT);\n\n        uint256 tokenId = _createNewStamp(_stampId, _totalAmount, _remainingAmount, _name, _year, _setId, _memberOfSetId, _appearance);\n        _mint(address(this), tokenId);\n        contractApprove(saleTransaction, tokenId);\n        \n        uint256 price = _computeStampPrice(_year, _totalAmount);\n        saleTransaction.createTransaction(tokenId, price, address(this));\n\n        stampCreatedCount++;\n        return tokenId;\n    }\n\n    function _computeStampPrice(uint16 _year, uint256 _totalCirculation) internal pure returns (uint256) {\n        uint256 price = 33*(10**7)/((_year - 1959)*_totalCirculation);\n        return price;\n    }\n}\n\ncontract StampCollection is StampMinting {\n    address public newContractAddress;\n\n    constructor() public {\n        paused = true;\n        ceoAddress = msg.sender;\n        cooAddress = msg.sender;\n    }\n    \n    function setNewAddress(address _v2Address) external onlyCEO whenPaused {\n        newContractAddress = _v2Address;\n        emit ContractUpgrade(_v2Address);\n    }\n\n    function() external payable {\n        require(msg.sender == address(saleTransaction));\n    }\n\n    function stampInfo(uint256 _id)\n        external\n        view\n        returns (\n        uint32 stampId,\n        uint16 year,\n        uint16 setId,\n        uint8  memberOfSetId,\n        uint32 totalAmount,\n        uint32 remainingAmount,\n        bytes32 name,\n        uint8 appearance\n    ) \n    {\n        Stamp storage stamp = stamps[_id];\n        stampId = stamp.stampId;\n        year = stamp.year;\n        setId = stamp.setId;\n        memberOfSetId = stamp.memberOfSetId;\n        totalAmount = stamp.totalAmount;\n        remainingAmount = stamp.remainingAmount;\n        name = stamp.name;\n        appearance = stamp.appearance;\n    }\n\n    function unpause() public onlyCEO whenPaused {\n        require(newContractAddress == address(0));\n\n        super.unpause();\n    }\n\n    function withdrawBalance() external onlyCFO {\n        uint256 balance = address(this).balance;\n        cfoAddress.transfer(balance);\n    }\n}\n\ncontract Transaction {\n    bool public isEtherTransaction = true;\n     \n    struct Trasaction {\n        uint128 price;\n        address seller;\n    }\n    \n    ERC721 public nonFungibleContract;\n    \n    mapping (uint256 => Trasaction) tokenIdToTransaction;\n    \n    event TransactionCreated(uint256 tokenId, uint256 price);\n    event TransactionSuccessful(uint256 tokenId, uint256 price, address buyer);\n    event TransactionCancelled(uint256 tokenId);\n    \n    function Transaction(address _nftAddress, uint256 _cut) public {\n        ERC721 candidateContract = ERC721(_nftAddress);\n        nonFungibleContract = candidateContract;\n    }\n    \n    function _owns(address _claimant, uint256 _tokenId) internal view returns (bool) {\n        return (nonFungibleContract.ownerOf(_tokenId) == _claimant);\n    }\n\n    function _escrow(address _owner, uint256 _tokenId) internal {\n        nonFungibleContract.transferFrom(_owner, address(this), _tokenId);\n    }\n    \n    function _addTransactionn(uint256 _tokenId, Trasaction _tracsaction) internal {\n        tokenIdToTransaction[_tokenId] = _tracsaction;\n\n        emit TransactionCreated(\n            uint256(_tokenId),\n            uint256(_tracsaction.price)\n        );\n    }\n\n    function _cancelTransactionn(uint256 _tokenId, address _seller) internal {\n        _removeTransaction(_tokenId);\n        nonFungibleContract.transferFrom(address(this), _seller, _tokenId);\n        emit TransactionCancelled(_tokenId);\n    }\n\n    function _bid(uint256 _tokenId, uint256 _buyPrice) internal\n    {\n        Trasaction storage transactionn = tokenIdToTransaction[_tokenId];\n\n        address seller = transactionn.seller;\n        uint128 price = transactionn.price;\n        require(_buyPrice == price);\n        \n        _removeTransaction(_tokenId);\n\n        seller.transfer(_buyPrice);\n\n        emit TransactionSuccessful(_tokenId, _buyPrice, msg.sender);\n    }\n\n    function _removeTransaction(uint256 _tokenId) internal {\n        delete tokenIdToTransaction[_tokenId];\n    }\n    \n    function createTransaction(uint256 _tokenId, uint256 _price, address _seller) external\n    {\n        require(_price == uint256(uint128(_price)));\n        require(_owns(msg.sender, _tokenId));\n        nonFungibleContract.setApprovalForAll(address(this), true);\n        nonFungibleContract.approve(address(this),_tokenId);\n        _escrow(msg.sender, _tokenId);\n        Trasaction memory tracsaction = Trasaction(\n            uint128(_price),\n            _seller\n        );\n        _addTransactionn(_tokenId, tracsaction);\n    }\n    \n    function bid(uint256 _tokenId) external payable\n    {\n        _bid(_tokenId, msg.value);\n        nonFungibleContract.transferFrom(address(this), msg.sender, _tokenId);\n    }\n    \n}\n\ncontract SaleTransaction is Transaction {\n    function SaleTransaction(address _nftAddr, uint256 _cut) public\n        Transaction(_nftAddr, _cut) {}\n        \n    function createTransaction(uint256 _tokenId, uint256 _price, address _seller) external\n    {\n        require(_price == uint256(uint128(_price)));\n        require(_owns(msg.sender, _tokenId));\n        require(msg.sender == address(nonFungibleContract));\n        _escrow(msg.sender, _tokenId);\n        Trasaction memory tracsaction = Trasaction(\n            uint128(_price),\n            _seller\n        );\n        _addTransactionn(_tokenId, tracsaction);\n    }\n    \n    function bid(uint256 _tokenId) external payable\n    {\n        _bid(_tokenId, msg.value);\n        nonFungibleContract.transferFrom(address(this), msg.sender, _tokenId);\n    }\n}\n\n\ncontract RepoTransaction {\n    struct PurchaseIngots {\n        address seller;\n        uint256 tokenId;\n        uint256 purchaseCount;\n    }\n    \n    mapping (uint256 => PurchaseIngots) tokenIdToPurchase;\n    \n    ERC721 public nonFungibleContract;\n    address public CEOAdress;\n    \n    event PurchaseIngotsSuccessful(uint256 tokenId, uint256 purchaseCount, address seller);\n    \n    constructor(address _nftAddress, address _ceoAddress) public {\n        ERC721 candidateContract = ERC721(_nftAddress);\n        nonFungibleContract = candidateContract;\n        CEOAdress = _ceoAddress;\n    }\n\n    function _owns(address _claimant, uint256 _tokenId) internal view returns (bool) {\n        return (nonFungibleContract.ownerOf(_tokenId) == _claimant);\n    }\n    function _escrow(address _owner, uint256 _tokenId) internal {\n        nonFungibleContract.transferFrom(_owner, address(this), _tokenId);\n    }\n    function purchase(uint256 _tokenId, uint256 _purchaseCount) public{\n        require(_owns(msg.sender, _tokenId));\n        nonFungibleContract.setApprovalForAll(address(this),true);\n        nonFungibleContract.approve(address(this), _tokenId);\n        nonFungibleContract.transferFrom(msg.sender, CEOAdress, _tokenId);\n        PurchaseIngots memory purchaseIngots = PurchaseIngots(\n            msg.sender,\n            _tokenId,\n            _purchaseCount\n        );\n        tokenIdToPurchase[_tokenId] = purchaseIngots;\n        emit PurchaseIngotsSuccessful(_tokenId, _purchaseCount, msg.sender);\n    }\n}\n\ncontract ClockAuctionBase {\n    struct Auction {\n        // Current owner of NFT\n        address seller;\n        // Price (in wei) at beginning of auction\n        uint128 startingPrice;\n        // Price (in wei) at end of auction\n        uint128 endingPrice;\n        // Duration (in seconds) of auction\n        uint64 duration;\n        // Time when auction started\n        uint64 startedAt;\n    }\n\n    ERC721 public nonFungibleContract;\n\n    // Cut owner takes on each auction, measured in basis points (1/100 of a percent).\n    // Values 0-10,000 map to 0%-100%\n    uint256 public ownerCut;\n\n    mapping (uint256 => Auction) tokenIdToAuction;\n\n    event AuctionCreated(uint256 tokenId, uint256 startingPrice, uint256 endingPrice, uint256 duration);\n    event AuctionSuccessful(uint256 tokenId, uint256 totalPrice, address winner);\n    event AuctionCancelled(uint256 tokenId);\n\n    function _owns(address _claimant, uint256 _tokenId) internal view returns (bool) {\n        return (nonFungibleContract.ownerOf(_tokenId) == _claimant);\n    }\n\n    function _escrow(address _owner, uint256 _tokenId) internal {\n        // it will throw if transfer fails\n        nonFungibleContract.transferFrom(_owner, address(this), _tokenId);\n    }\n\n    function _transfer(address _receiver, uint256 _tokenId) internal {\n        // it will throw if transfer fails\n        nonFungibleContract.transferFrom(address(this), _receiver, _tokenId);\n    }\n\n    function _addAuction(uint256 _tokenId, Auction _auction) internal {\n        require(_auction.duration >= 1 minutes);\n\n        tokenIdToAuction[_tokenId] = _auction;\n\n        emit AuctionCreated(\n            uint256(_tokenId),\n            uint256(_auction.startingPrice),\n            uint256(_auction.endingPrice),\n            uint256(_auction.duration)\n        );\n    }\n\n    function _cancelAuction(uint256 _tokenId, address _seller) internal {\n        _removeAuction(_tokenId);\n        _transfer(_seller, _tokenId);\n        emit AuctionCancelled(_tokenId);\n    }\n\n    function _bid(uint256 _tokenId, uint256 _bidAmount)\n        internal\n        returns (uint256)\n    {\n        Auction storage auction = tokenIdToAuction[_tokenId];\n        require(_isOnAuction(auction));\n\n        uint256 price = _currentPrice(auction);\n        require(_bidAmount >= price);\n\n        address seller = auction.seller;\n\n        _removeAuction(_tokenId);\n\n        if (price > 0) {\n\n            uint256 auctioneerCut = _computeCut(price);\n            uint256 sellerProceeds = price - auctioneerCut;\n\n            seller.transfer(sellerProceeds);\n        }\n\n        uint256 bidExcess = _bidAmount - price;\n\n        msg.sender.transfer(bidExcess);\n        emit AuctionSuccessful(_tokenId, price, msg.sender);\n\n        return price;\n    }\n\n    function _removeAuction(uint256 _tokenId) internal {\n        delete tokenIdToAuction[_tokenId];\n    }\n\n    function _isOnAuction(Auction storage _auction) internal view returns (bool) {\n        return (_auction.startedAt > 0);\n    }\n\n    function _currentPrice(Auction storage _auction)\n        internal\n        view\n        returns (uint256)\n    {\n        uint256 secondsPassed = 0;\n\n        if (now > _auction.startedAt) {\n            secondsPassed = now - _auction.startedAt;\n        }\n\n        return _computeCurrentPrice(\n            _auction.startingPrice,\n            _auction.endingPrice,\n            _auction.duration,\n            secondsPassed\n        );\n    }\n\n    function _computeCurrentPrice(\n        uint256 _startingPrice,\n        uint256 _endingPrice,\n        uint256 _duration,\n        uint256 _secondsPassed\n    )\n        internal\n        pure\n        returns (uint256)\n    {\n        if (_secondsPassed >= _duration) {\n            return _endingPrice;\n        } else {\n            int256 totalPriceChange = int256(_endingPrice) - int256(_startingPrice);\n\n            int256 currentPriceChange = totalPriceChange * int256(_secondsPassed) / int256(_duration);\n\n            int256 currentPrice = int256(_startingPrice) + currentPriceChange;\n\n            return uint256(currentPrice);\n        }\n    }\n\n    function _computeCut(uint256 _price) internal view returns (uint256) {\n        return _price * ownerCut / 10000;\n    }\n\n}\n\ncontract ClockAuction is Pausable, ClockAuctionBase {\n    constructor(address _nftAddress, uint256 _cut) public {\n        require(_cut <= 10000);\n        ownerCut = _cut;\n\n        ERC721 candidateContract = ERC721(_nftAddress);\n        nonFungibleContract = candidateContract;\n    }\n    \n    function withdrawBalance() external {\n        address nftAddress = address(nonFungibleContract);\n\n        require(\n            msg.sender == owner ||\n            msg.sender == nftAddress\n        );\n        nftAddress.transfer(address(this).balance);\n    }\n    \n    function createAuction(\n        uint256 _tokenId,\n        uint256 _startingPrice,\n        uint256 _endingPrice,\n        uint256 _duration,\n        address _seller\n    )\n        external\n        whenNotPaused\n    {\n        require(_startingPrice == uint256(uint128(_startingPrice)));\n        require(_endingPrice == uint256(uint128(_endingPrice)));\n        require(_duration == uint256(uint64(_duration)));\n\n        require(_owns(msg.sender, _tokenId));\n        _escrow(msg.sender, _tokenId);\n        Auction memory auction = Auction(\n            _seller,\n            uint128(_startingPrice),\n            uint128(_endingPrice),\n            uint64(_duration),\n            uint64(now)\n        );\n        _addAuction(_tokenId, auction);\n    }\n\n    function bid(uint256 _tokenId)\n        external\n        payable\n        whenNotPaused\n    {\n        _bid(_tokenId, msg.value);\n        _transfer(msg.sender, _tokenId);\n    }\n\n    function cancelAuction(uint256 _tokenId)\n        external\n    {\n        Auction storage auction = tokenIdToAuction[_tokenId];\n        require(_isOnAuction(auction));\n        address seller = auction.seller;\n        require(msg.sender == seller);\n        _cancelAuction(_tokenId, seller);\n    }\n\n    function cancelAuctionWhenPaused(uint256 _tokenId)\n        whenPaused\n        onlyOwner\n        external\n    {\n        Auction storage auction = tokenIdToAuction[_tokenId];\n        require(_isOnAuction(auction));\n        _cancelAuction(_tokenId, auction.seller);\n    }\n\n    function getAuction(uint256 _tokenId)\n        external\n        view\n        returns\n    (\n        address seller,\n        uint256 startingPrice,\n        uint256 endingPrice,\n        uint256 duration,\n        uint256 startedAt\n    ) {\n        Auction storage auction = tokenIdToAuction[_tokenId];\n        require(_isOnAuction(auction));\n        return (\n            auction.seller,\n            auction.startingPrice,\n            auction.endingPrice,\n            auction.duration,\n            auction.startedAt\n        );\n    }\n\n    function getCurrentPrice(uint256 _tokenId)\n        external\n        view\n        returns (uint256)\n    {\n        Auction storage auction = tokenIdToAuction[_tokenId];\n        require(_isOnAuction(auction));\n        return _currentPrice(auction);\n    }\n\n}\n\ncontract SaleClockAuction is ClockAuction {\n    bool public isSaleClockAuction = true;\n\n    uint256 public saleCount;\n    uint256[5] public lastSalePrices;\n\n    constructor(address _nftAddr, uint256 _cut) public\n        ClockAuction(_nftAddr, _cut) {}\n\n    function() external payable {\n    }\n    function createAuction(\n        uint256 _tokenId,\n        uint256 _startingPrice,\n        uint256 _endingPrice,\n        uint256 _duration,\n        address _seller\n    )\n        external\n    {\n        require(_startingPrice == uint256(uint128(_startingPrice)));\n        require(_endingPrice == uint256(uint128(_endingPrice)));\n        require(_duration == uint256(uint64(_duration)));\n\n        require(msg.sender == address(nonFungibleContract));\n        _escrow(_seller, _tokenId);\n        Auction memory auction = Auction(\n            _seller,\n            uint128(_startingPrice),\n            uint128(_endingPrice),\n            uint64(_duration),\n            uint64(now)\n        );\n        _addAuction(_tokenId, auction);\n    }\n\n    function bid(uint256 _tokenId)\n        external\n        payable\n    {\n        \n        _bid(_tokenId, msg.value);\n        _transfer(msg.sender, _tokenId);\n        saleCount++;\n    }\n\n}\n",
  "sourcePath": "/Users/gm/Documents/Ethereum-Learning/StampCollection/StampCollectionContract/contracts/StampCollection.sol",
  "compiler": {
    "name": "solc",
    "version": "0.4.23+commit.124ca40d.Emscripten.clang"
  },
  "schemaVersion": "2.0.0",
  "updatedAt": "2018-06-12T14:20:08.984Z"
}